{
  "contractName": "ImageShare",
  "abi": [
    {
      "constant": true,
      "inputs": [],
      "name": "getState",
      "outputs": [
        {
          "name": "_shareBaseUri",
          "type": "bytes32"
        },
        {
          "name": "_ownCount",
          "type": "uint256"
        },
        {
          "name": "_readCount",
          "type": "uint256"
        }
      ],
      "payable": false,
      "stateMutability": "view",
      "type": "function"
    },
    {
      "constant": false,
      "inputs": [
        {
          "name": "user",
          "type": "address"
        }
      ],
      "name": "revokeAuthorizedOwner",
      "outputs": [
        {
          "name": "success",
          "type": "bool"
        }
      ],
      "payable": false,
      "stateMutability": "nonpayable",
      "type": "function"
    },
    {
      "constant": true,
      "inputs": [
        {
          "name": "user",
          "type": "address"
        }
      ],
      "name": "canView",
      "outputs": [
        {
          "name": "success",
          "type": "bool"
        }
      ],
      "payable": false,
      "stateMutability": "view",
      "type": "function"
    },
    {
      "constant": false,
      "inputs": [
        {
          "name": "user",
          "type": "address"
        }
      ],
      "name": "revokeAuthorizedReader",
      "outputs": [
        {
          "name": "success",
          "type": "bool"
        }
      ],
      "payable": false,
      "stateMutability": "nonpayable",
      "type": "function"
    },
    {
      "inputs": [
        {
          "name": "user",
          "type": "address"
        },
        {
          "name": "_shareCreator",
          "type": "address"
        }
      ],
      "payable": false,
      "stateMutability": "nonpayable",
      "type": "function",
      "constant": false,
      "name": "addAuthorizedReader",
      "outputs": [
        {
          "name": "success",
          "type": "bool"
        }
      ]
    },
    {
      "anonymous": false,
      "inputs": [
        {
          "indexed": true,
          "name": "user",
          "type": "address"
        }
      ],
      "name": "addAuthorizedOwner",
      "type": "function",
      "constant": false,
      "outputs": [
        {
          "name": "success",
          "type": "bool"
        }
      ],
      "payable": false,
      "stateMutability": "nonpayable"
    },
    {
      "anonymous": false,
      "inputs": [
        {
          "indexed": true,
          "name": "_shareBaseUri",
          "type": "bytes32"
        },
        {
          "name": "_shareCreator",
          "type": "address"
        }
      ],
      "name": "OwnerRevoked",
      "type": "constructor",
      "payable": false,
      "stateMutability": "nonpayable"
    },
    {
      "anonymous": false,
      "inputs": [
        {
          "indexed": true,
          "name": "_user",
          "type": "address"
        }
      ],
      "name": "OwnerAdded",
      "type": "event"
    },
    {
      "anonymous": false,
      "inputs": [
        {
          "indexed": true,
          "name": "_user",
          "type": "address"
        }
      ],
      "name": "OwnerRevoked",
      "type": "event"
    },
    {
      "anonymous": false,
      "inputs": [
        {
          "indexed": true,
          "name": "_user",
          "type": "address"
        }
      ],
      "name": "ReaderAdded",
      "type": "event"
    },
    {
      "anonymous": false,
      "inputs": [
        {
          "indexed": true,
          "name": "_user",
          "type": "address"
        }
      ],
      "name": "ReaderRevoked",
      "type": "event"
    }
  ],
  "bytecode": "0x6060604052341561000f57600080fd5b604051604080610c2c8339810160405280805190602001909190805190602001909190505033600160006101000a81548173ffffffffffffffffffffffffffffffffffffffff021916908373ffffffffffffffffffffffffffffffffffffffff160217905550600573__Set___________________________________639dc159aa9091836000604051602001526040518363ffffffff167c0100000000000000000000000000000000000000000000000000000000028152600401808381526020018273ffffffffffffffffffffffffffffffffffffffff1673ffffffffffffffffffffffffffffffffffffffff1681526020019250505060206040518083038186803b151561011f57600080fd5b6102c65a03f4151561013057600080fd5b50505060405180519050508073ffffffffffffffffffffffffffffffffffffffff167f994a936646fe87ffe4f1e469d3d6aa417d6b855598397f323de5b449f765f0c360405160405180910390a2816000816000191690555080600260006101000a81548173ffffffffffffffffffffffffffffffffffffffff021916908373ffffffffffffffffffffffffffffffffffffffff1602179055505050610a51806101db6000396000f300606060405260043610610078576000357c0100000000000000000000000000000000000000000000000000000000900463ffffffff1680631865c57d1461007d57806321f73154146100bc57806350ef672d1461010d5780639215db381461015e578063ba28534f146101af578063c527caf114610200575b600080fd5b341561008857600080fd5b610090610251565b604051808460001916600019168152602001838152602001828152602001935050505060405180910390f35b34156100c757600080fd5b6100f3600480803573ffffffffffffffffffffffffffffffffffffffff1690602001909190505061026f565b604051808215151515815260200191505060405180910390f35b341561011857600080fd5b610144600480803573ffffffffffffffffffffffffffffffffffffffff169060200190919050506103ed565b604051808215151515815260200191505060405180910390f35b341561016957600080fd5b610195600480803573ffffffffffffffffffffffffffffffffffffffff1690602001909190505061040f565b604051808215151515815260200191505060405180910390f35b34156101ba57600080fd5b6101e6600480803573ffffffffffffffffffffffffffffffffffffffff1690602001909190505061058d565b604051808215151515815260200191505060405180910390f35b341561020b57600080fd5b610237600480803573ffffffffffffffffffffffffffffffffffffffff1690602001909190505061070b565b604051808215151515815260200191505060405180910390f35b60008060008054600560000154600360000154925092509250909192565b60003373ffffffffffffffffffffffffffffffffffffffff16600160009054906101000a900473ffffffffffffffffffffffffffffffffffffffff1673ffffffffffffffffffffffffffffffffffffffff161415156102cd57600080fd5b600573__Set___________________________________63874021439091846000604051602001526040518363ffffffff167c0100000000000000000000000000000000000000000000000000000000028152600401808381526020018273ffffffffffffffffffffffffffffffffffffffff1673ffffffffffffffffffffffffffffffffffffffff1681526020019250505060206040518083038186803b151561037757600080fd5b6102c65a03f4151561038857600080fd5b50505060405180519050156103e3578173ffffffffffffffffffffffffffffffffffffffff167f5f8bb4257386896995880272b638f5aa58cdaf9d5503adf485fbae04766390fa60405160405180910390a2600190506103e8565b600090505b919050565b60006103f882610889565b80610408575061040782610957565b5b9050919050565b60003373ffffffffffffffffffffffffffffffffffffffff16600160009054906101000a900473ffffffffffffffffffffffffffffffffffffffff1673ffffffffffffffffffffffffffffffffffffffff1614151561046d57600080fd5b600373__Set___________________________________63874021439091846000604051602001526040518363ffffffff167c0100000000000000000000000000000000000000000000000000000000028152600401808381526020018273ffffffffffffffffffffffffffffffffffffffff1673ffffffffffffffffffffffffffffffffffffffff1681526020019250505060206040518083038186803b151561051757600080fd5b6102c65a03f4151561052857600080fd5b5050506040518051905015610583578173ffffffffffffffffffffffffffffffffffffffff167fc5ab14d3802826c81e95b5f6967e95d6111420417796662e1cce7dd826f95b6b60405160405180910390a260019050610588565b600090505b919050565b60003373ffffffffffffffffffffffffffffffffffffffff16600160009054906101000a900473ffffffffffffffffffffffffffffffffffffffff1673ffffffffffffffffffffffffffffffffffffffff161415156105eb57600080fd5b600373__Set___________________________________639dc159aa9091846000604051602001526040518363ffffffff167c0100000000000000000000000000000000000000000000000000000000028152600401808381526020018273ffffffffffffffffffffffffffffffffffffffff1673ffffffffffffffffffffffffffffffffffffffff1681526020019250505060206040518083038186803b151561069557600080fd5b6102c65a03f415156106a657600080fd5b5050506040518051905015610701578173ffffffffffffffffffffffffffffffffffffffff167fb7724d890d2888af5a3fc456edb667e2c82c4441449ebcac301c618759e4f86d60405160405180910390a260019050610706565b600090505b919050565b60003373ffffffffffffffffffffffffffffffffffffffff16600160009054906101000a900473ffffffffffffffffffffffffffffffffffffffff1673ffffffffffffffffffffffffffffffffffffffff1614151561076957600080fd5b600573__Set___________________________________639dc159aa9091846000604051602001526040518363ffffffff167c0100000000000000000000000000000000000000000000000000000000028152600401808381526020018273ffffffffffffffffffffffffffffffffffffffff1673ffffffffffffffffffffffffffffffffffffffff1681526020019250505060206040518083038186803b151561081357600080fd5b6102c65a03f4151561082457600080fd5b505050604051805190501561087f578173ffffffffffffffffffffffffffffffffffffffff167f994a936646fe87ffe4f1e469d3d6aa417d6b855598397f323de5b449f765f0c360405160405180910390a260019050610884565b600090505b919050565b6000600573__Set___________________________________63fe6949e39091846000604051602001526040518363ffffffff167c0100000000000000000000000000000000000000000000000000000000028152600401808381526020018273ffffffffffffffffffffffffffffffffffffffff1673ffffffffffffffffffffffffffffffffffffffff1681526020019250505060206040518083038186803b151561093557600080fd5b6102c65a03f4151561094657600080fd5b505050604051805190509050919050565b6000600373__Set___________________________________63fe6949e39091846000604051602001526040518363ffffffff167c0100000000000000000000000000000000000000000000000000000000028152600401808381526020018273ffffffffffffffffffffffffffffffffffffffff1673ffffffffffffffffffffffffffffffffffffffff1681526020019250505060206040518083038186803b1515610a0357600080fd5b6102c65a03f41515610a1457600080fd5b5050506040518051905090509190505600a165627a7a72305820a39cf62d58f0540545848edfa6a6fba169b1e253886ac078548350473efbd56b0029",
  "source": "pragma solidity ^0.4.18;\r\nimport './utils/Set.sol';\r\n\r\ncontract ImageShare\r\n{\r\n  using Set for Set.Data;\r\n  bytes32 private shareBaseUri;\r\n\r\n  address private systemPublicKey;\r\n  address private shareCreator;\r\n\r\n  Set.Data private authorizedRead;\r\n  Set.Data private authorizedOwn;\r\n\r\n  event OwnerAdded(address indexed _user);\r\n  event OwnerRevoked(address indexed _user);\r\n  event ReaderAdded(address indexed _user);\r\n  event ReaderRevoked(address indexed _user);\r\n\r\n  modifier onlyOwners() {\r\n    require(systemPublicKey == msg.sender);\r\n    _;\r\n  }\r\n\r\n  function ImageShare(bytes32 _shareBaseUri, address _shareCreator) public {\r\n    systemPublicKey = msg.sender;\r\n\r\n    authorizedOwn.add(_shareCreator);\r\n    OwnerAdded(_shareCreator);\r\n\r\n    shareBaseUri = _shareBaseUri;\r\n    shareCreator = _shareCreator;\r\n  }\r\n\r\n  function addAuthorizedOwner(address user)\r\n    onlyOwners\r\n    public\r\n    returns (bool success)\r\n  {\r\n    if(authorizedOwn.add(user))\r\n    {\r\n      OwnerAdded(user);\r\n      return true;\r\n    }\r\n    return false;\r\n  }\r\n\r\n  function addAuthorizedReader(address user)\r\n    onlyOwners\r\n    public\r\n    returns (bool success)\r\n  {\r\n    if(authorizedRead.add(user))\r\n    {\r\n      ReaderAdded(user);\r\n      return true;\r\n    }\r\n    return false;\r\n  }\r\n\r\n  function revokeAuthorizedOwner(address user)\r\n    onlyOwners\r\n    public\r\n    returns (bool success)\r\n  {\r\n    if(authorizedOwn.remove(user))\r\n    {\r\n      OwnerRevoked(user);\r\n      return true;\r\n    }\r\n    return false;\r\n  }\r\n\r\n  function revokeAuthorizedReader(address user)\r\n    onlyOwners\r\n    public\r\n    returns (bool success)\r\n  {\r\n    if(authorizedRead.remove(user))\r\n    {\r\n      ReaderRevoked(user);\r\n      return true;\r\n    }\r\n    return false;\r\n  }\r\n\r\n\r\n  function getState()\r\n    constant\r\n    public\r\n    returns (bytes32 _shareBaseUri, uint256 _ownCount, uint256 _readCount)\r\n  {\r\n    return(shareBaseUri, authorizedOwn.size, authorizedRead.size);\r\n  }\r\n\r\n  function isReader(address user)\r\n    internal\r\n    view\r\n    returns (bool success)\r\n  {\r\n    return authorizedRead.contains(user);\r\n  }\r\n\r\n  function isOwner(address user)\r\n    internal\r\n    view\r\n    returns (bool success)\r\n  {\r\n    return authorizedOwn.contains(user);\r\n  }\r\n\r\n  function canView(address user)\r\n    public\r\n    view\r\n    returns (bool success)\r\n  {\r\n    return isOwner(user) || isReader(user);\r\n  }\r\n\r\n}\r\n",
  "sourcePath": "/Users/averma/Documents/Imageshare/BlockchainExperiments/contracts/ImageShare.sol",
  "compiler": {
    "name": "solc",
    "version": "0.4.18+commit.9cf6e910.Emscripten.clang"
  },
  "schemaVersion": "1.0.1",
  "updatedAt": "2018-01-31T02:54:43.225Z"
}