{
  "contractName": "IterableSet_Integer",
  "abi": [
    {
      "constant": true,
      "inputs": [
        {
          "name": "self",
          "type": "IterableSet_Integer.Data storage"
        },
        {
          "name": "value",
          "type": "uint256"
        }
      ],
      "name": "contains",
      "outputs": [
        {
          "name": "",
          "type": "bool"
        }
      ],
      "payable": false,
      "stateMutability": "view",
      "type": "function"
    },
    {
      "constant": true,
      "inputs": [
        {
          "name": "self",
          "type": "IterableSet_Integer.Data storage"
        }
      ],
      "name": "size",
      "outputs": [
        {
          "name": "",
          "type": "uint256"
        }
      ],
      "payable": false,
      "stateMutability": "view",
      "type": "function"
    },
    {
      "constant": false,
      "inputs": [
        {
          "name": "self",
          "type": "IterableSet_Integer.Data storage"
        },
        {
          "name": "value",
          "type": "uint256"
        }
      ],
      "name": "add",
      "outputs": [
        {
          "name": "",
          "type": "bool"
        }
      ],
      "payable": false,
      "stateMutability": "nonpayable",
      "type": "function"
    },
    {
      "constant": false,
      "inputs": [
        {
          "name": "self",
          "type": "IterableSet_Integer.Data storage"
        },
        {
          "name": "value",
          "type": "uint256"
        }
      ],
      "name": "remove",
      "outputs": [
        {
          "name": "",
          "type": "bool"
        }
      ],
      "payable": false,
      "stateMutability": "nonpayable",
      "type": "function"
    }
  ],
  "bytecode": "0x6060604052341561000f57600080fd5b6103738061001e6000396000f300606060405260043610610062576000357c0100000000000000000000000000000000000000000000000000000000900463ffffffff16806305eb115014610067578063349f51df146100a05780633b6de707146100cc578063e627f67a14610105575b600080fd5b610086600480803590602001909190803590602001909190505061013e565b604051808215151515815260200191505060405180910390f35b6100b6600480803590602001909190505061018f565b6040518082815260200191505060405180910390f35b6100eb60048080359060200190919080359060200190919050506101a0565b604051808215151515815260200191505060405180910390f35b610124600480803590602001909190803590602001909190505061020b565b604051808215151515815260200191505060405180910390f35b600080836001018054905014158015610187575081836001018460000160008581526020019081526020016000205481548110151561017957fe5b906000526020600020900154145b905092915050565b600081600101805490509050919050565b60006101ac838361013e565b156101ba5760009050610205565b60018360010180548060010182816101d291906102ca565b91600052602060002090016000859091909150550383600001600084815260200190815260200160002081905550600190505b92915050565b600080600061021a858561013e565b151561022957600092506102c2565b84600001600085815260200190815260200160002054915084600101600186600101805490500381548110151561025c57fe5b9060005260206000209001549050818560000160008381526020019081526020016000208190555080856001018381548110151561029657fe5b906000526020600020900181905550846001018054809190600190036102bc91906102f6565b50600192505b505092915050565b8154818355818115116102f1578183600052602060002091820191016102f09190610322565b5b505050565b81548183558181151161031d5781836000526020600020918201910161031c9190610322565b5b505050565b61034491905b80821115610340576000816000905550600101610328565b5090565b905600a165627a7a7230582081eb90f85b8232d22dc886a15fbc2895d2313c0b9de6559659a790ba1766f6d60029",
  "source": "pragma solidity ^0.4.18;\n\nlibrary IterableSet_Integer\n{\n    struct Data {\n        mapping(uint => uint) indices;\n        uint[] list;\n    }\n\n    function size(Data storage self) public view returns (uint)\n    {\n        return self.list.length;\n    }\n\n    function contains(Data storage self, uint value) public view returns (bool)\n    {\n        return self.list.length != 0 && self.list[self.indices[value]] == value;\n    }\n\n    function add(Data storage self, uint value) public returns (bool)\n    {\n        if(contains(self, value))\n            return false;\n        self.indices[value] = self.list.push(value) - 1;\n        return true;\n    }\n\n    function remove(Data storage self, uint value) public returns (bool)\n    {\n        if(!contains(self, value))\n            return false;\n        uint toRemove = self.indices[value];\n        uint temp = self.list[self.list.length - 1];\n        self.indices[temp] = toRemove;\n        self.list[toRemove] = temp;\n        self.list.length--;\n        return true;\n    }\n}",
  "sourcePath": "/Users/averma/Documents/Imageshare/BlockchainExperiments/contracts/utils/IterableSet_Integer.sol",
  "compiler": {
    "name": "solc",
    "version": "0.4.18+commit.9cf6e910.Emscripten.clang"
  },
  "schemaVersion": "1.0.1",
  "updatedAt": "2018-01-31T05:28:15.000Z"
}