{
  "contractName": "IterableSet_Address",
  "abi": [
    {
      "constant": true,
      "inputs": [
        {
          "name": "self",
          "type": "IterableSet_Address.Data storage"
        }
      ],
      "name": "size",
      "outputs": [
        {
          "name": "",
          "type": "uint256"
        }
      ],
      "payable": false,
      "stateMutability": "view",
      "type": "function"
    },
    {
      "constant": false,
      "inputs": [
        {
          "name": "self",
          "type": "IterableSet_Address.Data storage"
        },
        {
          "name": "value",
          "type": "address"
        }
      ],
      "name": "remove",
      "outputs": [
        {
          "name": "",
          "type": "bool"
        }
      ],
      "payable": false,
      "stateMutability": "nonpayable",
      "type": "function"
    },
    {
      "constant": false,
      "inputs": [
        {
          "name": "self",
          "type": "IterableSet_Address.Data storage"
        },
        {
          "name": "value",
          "type": "address"
        }
      ],
      "name": "add",
      "outputs": [
        {
          "name": "",
          "type": "bool"
        }
      ],
      "payable": false,
      "stateMutability": "nonpayable",
      "type": "function"
    },
    {
      "constant": true,
      "inputs": [
        {
          "name": "self",
          "type": "IterableSet_Address.Data storage"
        },
        {
          "name": "value",
          "type": "address"
        }
      ],
      "name": "contains",
      "outputs": [
        {
          "name": "",
          "type": "bool"
        }
      ],
      "payable": false,
      "stateMutability": "view",
      "type": "function"
    }
  ],
  "bytecode": "0x6060604052341561000f57600080fd5b6105458061001e6000396000f300606060405260043610610062576000357c0100000000000000000000000000000000000000000000000000000000900463ffffffff16806309b0eabf1461006757806331ac78b714610093578063c1dea930146100e2578063ebc402df14610131575b600080fd5b61007d6004808035906020019091905050610180565b6040518082815260200191505060405180910390f35b6100c8600480803590602001909190803573ffffffffffffffffffffffffffffffffffffffff16906020019091905050610191565b604051808215151515815260200191505060405180910390f35b610117600480803590602001909190803573ffffffffffffffffffffffffffffffffffffffff16906020019091905050610302565b604051808215151515815260200191505060405180910390f35b610166600480803590602001909190803573ffffffffffffffffffffffffffffffffffffffff169060200190919050506103d3565b604051808215151515815260200191505060405180910390f35b600081600101805490509050919050565b60008060006101a085856103d3565b15156101af57600092506102fa565b8460000160008573ffffffffffffffffffffffffffffffffffffffff1673ffffffffffffffffffffffffffffffffffffffff16815260200190815260200160002054915084600101600186600101805490500381548110151561020e57fe5b906000526020600020900160009054906101000a900473ffffffffffffffffffffffffffffffffffffffff169050818560000160008373ffffffffffffffffffffffffffffffffffffffff1673ffffffffffffffffffffffffffffffffffffffff1681526020019081526020016000208190555080856001018381548110151561029457fe5b906000526020600020900160006101000a81548173ffffffffffffffffffffffffffffffffffffffff021916908373ffffffffffffffffffffffffffffffffffffffff160217905550846001018054809190600190036102f4919061049c565b50600192505b505092915050565b600061030e83836103d3565b1561031c57600090506103cd565b600183600101805480600101828161033491906104c8565b9160005260206000209001600085909190916101000a81548173ffffffffffffffffffffffffffffffffffffffff021916908373ffffffffffffffffffffffffffffffffffffffff160217905550038360000160008473ffffffffffffffffffffffffffffffffffffffff1673ffffffffffffffffffffffffffffffffffffffff16815260200190815260200160002081905550600190505b92915050565b60008083600101805490501415801561049457508173ffffffffffffffffffffffffffffffffffffffff16836001018460000160008573ffffffffffffffffffffffffffffffffffffffff1673ffffffffffffffffffffffffffffffffffffffff1681526020019081526020016000205481548110151561045057fe5b906000526020600020900160009054906101000a900473ffffffffffffffffffffffffffffffffffffffff1673ffffffffffffffffffffffffffffffffffffffff16145b905092915050565b8154818355818115116104c3578183600052602060002091820191016104c291906104f4565b5b505050565b8154818355818115116104ef578183600052602060002091820191016104ee91906104f4565b5b505050565b61051691905b808211156105125760008160009055506001016104fa565b5090565b905600a165627a7a7230582020898855aa5bd5df2e5a27aea3e76f90272e11aa5d3b699d00333fdb950065f70029",
  "source": "pragma solidity ^0.4.18;\n\nlibrary IterableSet_Address\n{\n    struct Data {\n        mapping(address => uint) indices;\n        address[] list;\n    }\n\n    function size(Data storage self) public view returns (uint)\n    {\n        return self.list.length;\n    }\n\n    function contains(Data storage self, address value) public view returns (bool)\n    {\n        return self.list.length != 0 && self.list[self.indices[value]] == value;\n    }\n\n    function add(Data storage self, address value) public returns (bool)\n    {\n        if(contains(self, value))\n            return false;\n        self.indices[value] = self.list.push(value) - 1;\n        return true;\n    }\n\n    function remove(Data storage self, address value) public returns (bool)\n    {\n        if(!contains(self, value))\n            return false;\n        uint toRemove = self.indices[value];\n        address temp = self.list[self.list.length - 1];\n        self.indices[temp] = toRemove;\n        self.list[toRemove] = temp;\n        self.list.length--;\n        return true;\n    }\n}",
  "sourcePath": "/Users/averma/Documents/Imageshare/BlockchainExperiments/contracts/utils/IterableSet_Address.sol",
  "compiler": {
    "name": "solc",
    "version": "0.4.18+commit.9cf6e910.Emscripten.clang"
  },
  "schemaVersion": "1.0.1",
  "updatedAt": "2018-01-31T05:28:14.994Z"
}