{
  "contractName": "Set",
  "abi": [
    {
      "constant": false,
      "inputs": [
        {
          "name": "self",
          "type": "Set.Data storage"
        },
        {
          "name": "value",
          "type": "address"
        }
      ],
      "name": "remove",
      "outputs": [
        {
          "name": "",
          "type": "bool"
        }
      ],
      "payable": false,
      "stateMutability": "nonpayable",
      "type": "function"
    },
    {
      "constant": false,
      "inputs": [
        {
          "name": "self",
          "type": "Set.Data storage"
        },
        {
          "name": "value",
          "type": "address"
        }
      ],
      "name": "add",
      "outputs": [
        {
          "name": "",
          "type": "bool"
        }
      ],
      "payable": false,
      "stateMutability": "nonpayable",
      "type": "function"
    },
    {
      "constant": true,
      "inputs": [
        {
          "name": "self",
          "type": "Set.Data storage"
        },
        {
          "name": "value",
          "type": "address"
        }
      ],
      "name": "contains",
      "outputs": [
        {
          "name": "",
          "type": "bool"
        }
      ],
      "payable": false,
      "stateMutability": "view",
      "type": "function"
    }
  ],
  "bytecode": "0x6060604052341561000f57600080fd5b6102f68061001e6000396000f300606060405260043610610057576000357c0100000000000000000000000000000000000000000000000000000000900463ffffffff168063874021431461005c5780639dc159aa146100ab578063fe6949e3146100fa575b600080fd5b610091600480803590602001909190803573ffffffffffffffffffffffffffffffffffffffff16906020019091905050610149565b604051808215151515815260200191505060405180910390f35b6100e0600480803590602001909190803573ffffffffffffffffffffffffffffffffffffffff169060200190919050506101de565b604051808215151515815260200191505060405180910390f35b61012f600480803590602001909190803573ffffffffffffffffffffffffffffffffffffffff16906020019091905050610271565b604051808215151515815260200191505060405180910390f35b60006101558383610271565b151561016457600090506101d8565b60008360010160008473ffffffffffffffffffffffffffffffffffffffff1673ffffffffffffffffffffffffffffffffffffffff16815260200190815260200160002060006101000a81548160ff021916908315150217905550826000016000815480929190600190039190505550600190505b92915050565b60006101ea8383610271565b156101f8576000905061026b565b60018360010160008473ffffffffffffffffffffffffffffffffffffffff1673ffffffffffffffffffffffffffffffffffffffff16815260200190815260200160002060006101000a81548160ff0219169083151502179055508260000160008154809291906001019190505550600190505b92915050565b60008260010160008373ffffffffffffffffffffffffffffffffffffffff1673ffffffffffffffffffffffffffffffffffffffff16815260200190815260200160002060009054906101000a900460ff169050929150505600a165627a7a72305820e91910937cbb1477bfd2f323d96a1560a902bfd6654a8f64fdf1c764b40e18a70029",
  "source": "pragma solidity ^0.4.18;\n\nlibrary Set\n{\n    struct Data {\n        uint size;\n        mapping(address => bool) flags;\n    }\n\n    function contains(Data storage self, address value) public view returns (bool)\n    {\n        return self.flags[value];\n    }\n\n    function add(Data storage self, address value) public returns (bool)\n    {\n        if(contains(self, value))\n            return false;\n        self.flags[value] = true;\n        self.size++;\n        return true;\n    }\n\n    function remove(Data storage self, address value) public returns (bool)\n    {\n        if(!contains(self, value))\n            return false;\n        self.flags[value] = false;\n        self.size--;\n        return true;\n    }\n}\n\nlibrary IterableSet_Address\n{\n    struct Data {\n        mapping(address => uint) indices;\n        address[] list;\n    }\n\n    function size(Data storage self) public view returns (uint)\n    {\n        return self.list.length;\n    }\n\n    function contains(Data storage self, address value) public view returns (bool)\n    {\n        return self.list[self.indices[value]] == value;\n    }\n\n    function add(Data storage self, address value) public returns (bool)\n    {\n        if(contains(self, value))\n            return false;\n        self.indices[value] = self.list.push(value) - 1;\n        return true;\n    }\n\n    function remove(Data storage self, address value) public returns (bool)\n    {\n        if(!contains(self, value))\n            return false;\n        uint toRemove = self.indices[value];\n        address temp = self.list[self.list.length - 1];\n        self.indices[temp] = toRemove;\n        self.list[toRemove] = temp;\n        self.list.length--;\n        return true;\n    }\n}\n\nlibrary IterableSet_Integer\n{\n    struct Data {\n        mapping(uint => uint) indices;\n        uint[] list;\n    }\n\n    function size(Data storage self) public view returns (uint)\n    {\n        return self.list.length;\n    }\n\n    function contains(Data storage self, uint value) public view returns (bool)\n    {\n        return self.list[self.indices[value]] == value;\n    }\n\n    function add(Data storage self, uint value) public returns (bool)\n    {\n        if(contains(self, value))\n            return false;\n        self.indices[value] = self.list.push(value) - 1;\n        return true;\n    }\n\n    function remove(Data storage self, uint value) public returns (bool)\n    {\n        if(!contains(self, value))\n            return false;\n        uint toRemove = self.indices[value];\n        uint temp = self.list[self.list.length - 1];\n        self.indices[temp] = toRemove;\n        self.list[toRemove] = temp;\n        self.list.length--;\n        return true;\n    }\n}\n\n//library ImageShareSet\n//{\n//    struct ImageShare\n//    {\n//        uint id;\n//        bytes32 uri;\n//        Set.Data authorizedOwn;\n//        Set.Data authorizedRead;\n//    }\n//\n//    struct Data\n//    {\n//        mapping(uint => ImageShare) map;\n//        ImageShare[] shares;\n//    }\n//\n//    function contains(Data storage self, uint id) public view returns (bool)\n//    {\n//        return self.map[id].uri == 0x0;\n//    }\n//\n//    function add(Data storage self, ImageShare share) public returns (bool)\n//    {\n//        if(contains(self, id))\n//            return false;\n//        self.shares.add(share);\n//        return true;\n//    }\n//\n//    function remove(Data storage self, uint id) public returns (bool)\n//    {\n//        if(!contains(self, id))\n//            return false;\n//        ImageShare toRemove = self.map[id];\n//        ImageShare end = self.shares[self.shares.length - 1];\n//        end.index = toRemove.index;\n//        self.map[id].uri == 0x0;\n//        self.shares[toRemove.index] = end;\n//        self.shares.length--;\n//        return true;\n//    }\n//}",
  "sourcePath": "/Users/averma/Documents/Imageshare/BlockchainExperiments/contracts/Set.sol",
  "compiler": {
    "name": "solc",
    "version": "0.4.18+commit.9cf6e910.Emscripten.clang"
  },
  "schemaVersion": "1.0.1",
  "updatedAt": "2018-01-22T03:13:12.805Z"
}