{
  "contractName": "ShareCenter",
  "abi": [
    {
      "inputs": [],
      "payable": false,
      "stateMutability": "nonpayable",
      "type": "constructor"
    },
    {
      "anonymous": false,
      "inputs": [
        {
          "indexed": false,
          "name": "addr",
          "type": "address"
        },
        {
          "indexed": false,
          "name": "sender",
          "type": "address"
        }
      ],
      "name": "SystemAdded",
      "type": "event"
    },
    {
      "anonymous": false,
      "inputs": [
        {
          "indexed": false,
          "name": "addr",
          "type": "address"
        },
        {
          "indexed": false,
          "name": "sender",
          "type": "address"
        }
      ],
      "name": "UserCreated",
      "type": "event"
    },
    {
      "anonymous": false,
      "inputs": [
        {
          "indexed": false,
          "name": "addr",
          "type": "address"
        },
        {
          "indexed": false,
          "name": "groupID",
          "type": "uint256"
        },
        {
          "indexed": false,
          "name": "sender",
          "type": "address"
        }
      ],
      "name": "UserAdded",
      "type": "event"
    },
    {
      "anonymous": false,
      "inputs": [
        {
          "indexed": false,
          "name": "groupID",
          "type": "uint256"
        },
        {
          "indexed": false,
          "name": "subgroupID",
          "type": "uint256"
        },
        {
          "indexed": false,
          "name": "sender",
          "type": "address"
        }
      ],
      "name": "GroupAdded",
      "type": "event"
    },
    {
      "anonymous": false,
      "inputs": [
        {
          "indexed": false,
          "name": "groupID",
          "type": "uint256"
        },
        {
          "indexed": false,
          "name": "subgroupID",
          "type": "uint256"
        },
        {
          "indexed": false,
          "name": "sender",
          "type": "address"
        }
      ],
      "name": "GroupRemoved",
      "type": "event"
    },
    {
      "anonymous": false,
      "inputs": [
        {
          "indexed": false,
          "name": "id",
          "type": "uint256"
        },
        {
          "indexed": false,
          "name": "sender",
          "type": "address"
        }
      ],
      "name": "GroupCreated",
      "type": "event"
    },
    {
      "anonymous": false,
      "inputs": [
        {
          "indexed": false,
          "name": "shareID",
          "type": "uint256"
        },
        {
          "indexed": false,
          "name": "groupID",
          "type": "uint256"
        },
        {
          "indexed": false,
          "name": "host",
          "type": "bytes32"
        },
        {
          "indexed": false,
          "name": "path",
          "type": "bytes32"
        },
        {
          "indexed": false,
          "name": "time",
          "type": "uint256"
        },
        {
          "indexed": false,
          "name": "access",
          "type": "uint256"
        },
        {
          "indexed": false,
          "name": "sender",
          "type": "address"
        }
      ],
      "name": "ShareAdded",
      "type": "event"
    },
    {
      "anonymous": false,
      "inputs": [
        {
          "indexed": false,
          "name": "id",
          "type": "uint256"
        },
        {
          "indexed": false,
          "name": "sender",
          "type": "address"
        }
      ],
      "name": "ShareDeleted",
      "type": "event"
    },
    {
      "anonymous": false,
      "inputs": [
        {
          "indexed": false,
          "name": "groupID",
          "type": "uint256"
        },
        {
          "indexed": false,
          "name": "addr",
          "type": "address"
        },
        {
          "indexed": false,
          "name": "sender",
          "type": "address"
        }
      ],
      "name": "UserPending",
      "type": "event"
    },
    {
      "anonymous": false,
      "inputs": [
        {
          "indexed": false,
          "name": "groupID",
          "type": "uint256"
        },
        {
          "indexed": false,
          "name": "subgroupID",
          "type": "uint256"
        },
        {
          "indexed": false,
          "name": "sender",
          "type": "address"
        }
      ],
      "name": "GroupPending",
      "type": "event"
    },
    {
      "anonymous": false,
      "inputs": [
        {
          "indexed": false,
          "name": "groupID",
          "type": "uint256"
        },
        {
          "indexed": false,
          "name": "parentGroupID",
          "type": "uint256"
        },
        {
          "indexed": false,
          "name": "sender",
          "type": "address"
        }
      ],
      "name": "SubgroupPending",
      "type": "event"
    },
    {
      "anonymous": false,
      "inputs": [
        {
          "indexed": false,
          "name": "groupID",
          "type": "uint256"
        },
        {
          "indexed": false,
          "name": "shareID",
          "type": "uint256"
        },
        {
          "indexed": false,
          "name": "sender",
          "type": "address"
        }
      ],
      "name": "SharePending",
      "type": "event"
    },
    {
      "anonymous": false,
      "inputs": [
        {
          "indexed": false,
          "name": "id",
          "type": "uint256"
        }
      ],
      "name": "Error",
      "type": "event"
    },
    {
      "constant": true,
      "inputs": [
        {
          "name": "addr",
          "type": "address"
        },
        {
          "name": "shareID",
          "type": "uint256"
        }
      ],
      "name": "canRead",
      "outputs": [
        {
          "name": "",
          "type": "bool"
        }
      ],
      "payable": false,
      "stateMutability": "view",
      "type": "function"
    },
    {
      "constant": true,
      "inputs": [
        {
          "name": "addr",
          "type": "address"
        },
        {
          "name": "shareID",
          "type": "uint256"
        }
      ],
      "name": "canWrite",
      "outputs": [
        {
          "name": "",
          "type": "bool"
        }
      ],
      "payable": false,
      "stateMutability": "view",
      "type": "function"
    },
    {
      "constant": true,
      "inputs": [
        {
          "name": "system",
          "type": "address"
        }
      ],
      "name": "isAddedSystem",
      "outputs": [
        {
          "name": "",
          "type": "bool"
        }
      ],
      "payable": false,
      "stateMutability": "view",
      "type": "function"
    },
    {
      "constant": false,
      "inputs": [
        {
          "name": "system",
          "type": "address"
        }
      ],
      "name": "addSystem",
      "outputs": [],
      "payable": false,
      "stateMutability": "nonpayable",
      "type": "function"
    },
    {
      "constant": false,
      "inputs": [
        {
          "name": "addr",
          "type": "address"
        }
      ],
      "name": "getPersonalGroupID",
      "outputs": [
        {
          "name": "",
          "type": "bool"
        },
        {
          "name": "",
          "type": "uint256"
        }
      ],
      "payable": false,
      "stateMutability": "nonpayable",
      "type": "function"
    },
    {
      "constant": false,
      "inputs": [
        {
          "name": "groupID",
          "type": "uint256"
        }
      ],
      "name": "getUsers",
      "outputs": [
        {
          "name": "",
          "type": "bool"
        },
        {
          "name": "",
          "type": "address[]"
        }
      ],
      "payable": false,
      "stateMutability": "nonpayable",
      "type": "function"
    },
    {
      "constant": false,
      "inputs": [
        {
          "name": "addr",
          "type": "address"
        }
      ],
      "name": "createUser",
      "outputs": [],
      "payable": false,
      "stateMutability": "nonpayable",
      "type": "function"
    },
    {
      "constant": false,
      "inputs": [
        {
          "name": "addr",
          "type": "address"
        }
      ],
      "name": "whitelist",
      "outputs": [],
      "payable": false,
      "stateMutability": "nonpayable",
      "type": "function"
    },
    {
      "constant": false,
      "inputs": [
        {
          "name": "addr",
          "type": "address"
        }
      ],
      "name": "blacklist",
      "outputs": [],
      "payable": false,
      "stateMutability": "nonpayable",
      "type": "function"
    },
    {
      "constant": true,
      "inputs": [],
      "name": "getUserInvites",
      "outputs": [
        {
          "name": "",
          "type": "bool"
        },
        {
          "name": "",
          "type": "uint256[]"
        }
      ],
      "payable": false,
      "stateMutability": "view",
      "type": "function"
    },
    {
      "constant": true,
      "inputs": [
        {
          "name": "groupID",
          "type": "uint256"
        }
      ],
      "name": "getShareInvites",
      "outputs": [
        {
          "name": "",
          "type": "bool"
        },
        {
          "name": "",
          "type": "uint256[]"
        }
      ],
      "payable": false,
      "stateMutability": "view",
      "type": "function"
    },
    {
      "constant": true,
      "inputs": [],
      "name": "getGroupInvites",
      "outputs": [
        {
          "name": "found",
          "type": "bool"
        },
        {
          "name": "groupIDs",
          "type": "uint256[]"
        },
        {
          "name": "parentGroupIDs",
          "type": "uint256[]"
        }
      ],
      "payable": false,
      "stateMutability": "view",
      "type": "function"
    },
    {
      "constant": true,
      "inputs": [],
      "name": "getSubgroupInvites",
      "outputs": [
        {
          "name": "found",
          "type": "bool"
        },
        {
          "name": "groupIDs",
          "type": "uint256[]"
        },
        {
          "name": "subgroupIDs",
          "type": "uint256[]"
        }
      ],
      "payable": false,
      "stateMutability": "view",
      "type": "function"
    },
    {
      "constant": true,
      "inputs": [
        {
          "name": "addr",
          "type": "address"
        }
      ],
      "name": "getGroupIDs",
      "outputs": [
        {
          "name": "",
          "type": "bool"
        },
        {
          "name": "",
          "type": "uint256[]"
        }
      ],
      "payable": false,
      "stateMutability": "view",
      "type": "function"
    },
    {
      "constant": false,
      "inputs": [
        {
          "name": "groupID",
          "type": "uint256"
        }
      ],
      "name": "getParentGroups",
      "outputs": [
        {
          "name": "",
          "type": "bool"
        },
        {
          "name": "",
          "type": "uint256[]"
        }
      ],
      "payable": false,
      "stateMutability": "nonpayable",
      "type": "function"
    },
    {
      "constant": false,
      "inputs": [
        {
          "name": "groupID",
          "type": "uint256"
        }
      ],
      "name": "getSubGroups",
      "outputs": [
        {
          "name": "",
          "type": "bool"
        },
        {
          "name": "",
          "type": "uint256[]"
        }
      ],
      "payable": false,
      "stateMutability": "nonpayable",
      "type": "function"
    },
    {
      "constant": false,
      "inputs": [],
      "name": "createGroup",
      "outputs": [
        {
          "name": "",
          "type": "uint256"
        }
      ],
      "payable": false,
      "stateMutability": "nonpayable",
      "type": "function"
    },
    {
      "constant": false,
      "inputs": [
        {
          "name": "groupID",
          "type": "uint256"
        },
        {
          "name": "parentGroupID",
          "type": "uint256"
        }
      ],
      "name": "addSubGroup",
      "outputs": [],
      "payable": false,
      "stateMutability": "nonpayable",
      "type": "function"
    },
    {
      "constant": false,
      "inputs": [
        {
          "name": "groupID",
          "type": "uint256"
        },
        {
          "name": "subgroupID",
          "type": "uint256"
        }
      ],
      "name": "addGroupToGroup",
      "outputs": [],
      "payable": false,
      "stateMutability": "nonpayable",
      "type": "function"
    },
    {
      "constant": false,
      "inputs": [
        {
          "name": "groupID",
          "type": "uint256"
        },
        {
          "name": "subgroupID",
          "type": "uint256"
        }
      ],
      "name": "removeGroupFromGroup",
      "outputs": [],
      "payable": false,
      "stateMutability": "nonpayable",
      "type": "function"
    },
    {
      "constant": false,
      "inputs": [
        {
          "name": "parentGroupID",
          "type": "uint256"
        }
      ],
      "name": "acceptParentGroupAsUser",
      "outputs": [],
      "payable": false,
      "stateMutability": "nonpayable",
      "type": "function"
    },
    {
      "constant": false,
      "inputs": [
        {
          "name": "parentGroupID",
          "type": "uint256"
        },
        {
          "name": "groupID",
          "type": "uint256"
        }
      ],
      "name": "acceptParentGroupAsGroup",
      "outputs": [],
      "payable": false,
      "stateMutability": "nonpayable",
      "type": "function"
    },
    {
      "constant": false,
      "inputs": [
        {
          "name": "subgroupID",
          "type": "uint256"
        },
        {
          "name": "groupID",
          "type": "uint256"
        }
      ],
      "name": "acceptSubgroup",
      "outputs": [],
      "payable": false,
      "stateMutability": "nonpayable",
      "type": "function"
    },
    {
      "constant": false,
      "inputs": [
        {
          "name": "groupID",
          "type": "uint256"
        },
        {
          "name": "addr",
          "type": "address"
        }
      ],
      "name": "addUserToGroup",
      "outputs": [],
      "payable": false,
      "stateMutability": "nonpayable",
      "type": "function"
    },
    {
      "constant": false,
      "inputs": [
        {
          "name": "groupID",
          "type": "uint256"
        },
        {
          "name": "addr",
          "type": "address"
        }
      ],
      "name": "removeUserFromGroup",
      "outputs": [],
      "payable": false,
      "stateMutability": "nonpayable",
      "type": "function"
    },
    {
      "constant": true,
      "inputs": [
        {
          "name": "shareID",
          "type": "uint256"
        }
      ],
      "name": "getShare",
      "outputs": [
        {
          "name": "found",
          "type": "bool"
        },
        {
          "name": "owner",
          "type": "address"
        },
        {
          "name": "groupID",
          "type": "uint256"
        },
        {
          "name": "host",
          "type": "bytes32"
        },
        {
          "name": "path",
          "type": "bytes32"
        },
        {
          "name": "time",
          "type": "uint256"
        },
        {
          "name": "access",
          "type": "uint256"
        }
      ],
      "payable": false,
      "stateMutability": "view",
      "type": "function"
    },
    {
      "constant": true,
      "inputs": [
        {
          "name": "groupID",
          "type": "uint256"
        }
      ],
      "name": "getShares",
      "outputs": [
        {
          "name": "found",
          "type": "bool"
        },
        {
          "name": "index",
          "type": "uint256"
        },
        {
          "name": "shareIDs",
          "type": "uint256[]"
        },
        {
          "name": "hosts",
          "type": "bytes32[]"
        },
        {
          "name": "paths",
          "type": "bytes32[]"
        }
      ],
      "payable": false,
      "stateMutability": "view",
      "type": "function"
    },
    {
      "constant": false,
      "inputs": [
        {
          "name": "groupID",
          "type": "uint256"
        },
        {
          "name": "shareID",
          "type": "uint256"
        }
      ],
      "name": "acceptShare",
      "outputs": [],
      "payable": false,
      "stateMutability": "nonpayable",
      "type": "function"
    },
    {
      "constant": false,
      "inputs": [
        {
          "name": "host",
          "type": "bytes32"
        },
        {
          "name": "path",
          "type": "bytes32"
        },
        {
          "name": "groupID",
          "type": "uint256"
        },
        {
          "name": "time",
          "type": "uint256"
        },
        {
          "name": "access",
          "type": "uint256"
        }
      ],
      "name": "addShare",
      "outputs": [],
      "payable": false,
      "stateMutability": "nonpayable",
      "type": "function"
    },
    {
      "constant": false,
      "inputs": [
        {
          "name": "shareID",
          "type": "uint256"
        }
      ],
      "name": "deleteShare",
      "outputs": [],
      "payable": false,
      "stateMutability": "nonpayable",
      "type": "function"
    }
  ],
  "bytecode": "0x60806040526000600555600060065534801561001a57600080fd5b50336000806101000a81548173ffffffffffffffffffffffffffffffffffffffff021916908373ffffffffffffffffffffffffffffffffffffffff16021790555061595c806200006b6000396000f300608060405260043610610180576000357c0100000000000000000000000000000000000000000000000000000000900463ffffffff168063355d601f146101855780633ce544031461021257806347b03f89146102495780635303db2d14610280578063575185ed146102ad5780635965b2b2146102d85780635d73ab9a146103335780636f7267b7146103c057806374be7592146104e457806375a43a251461052757806384269cc414610554578063859a0b9d146105e15780638f110fe0146106845780639b19251a146106bb578063a0e1543d146106fe578063a99fce3d14610760578063acad0f71146107d7578063b5d2e71514610864578063c84668bb14610923578063ca1abf041461095a578063caec3ba6146109b7578063cdd87618146109ee578063cfa8c6f014610a31578063cfb5a5f814610a7e578063d436fcb014610b29578063dc2db9de14610be8578063e43e216614610c1f578063f9f92be414610c6c578063ff2ff6c914610caf578063ffad995014610d14575b600080fd5b34801561019157600080fd5b506101b060048036038101908080359060200190929190505050610d79565b604051808315151515815260200180602001828103825283818151815260200191508051906020019060200280838360005b838110156101fd5780820151818401526020810190506101e2565b50505050905001935050505060405180910390f35b34801561021e57600080fd5b506102476004803603810190808035906020019092919080359060200190929190505050610e5d565b005b34801561025557600080fd5b5061027e6004803603810190808035906020019092919080359060200190929190505050610f6a565b005b34801561028c57600080fd5b506102ab60048036038101908080359060200190929190505050611077565b005b3480156102b957600080fd5b506102c261117d565b6040518082815260200191505060405180910390f35b3480156102e457600080fd5b50610319600480360381019080803573ffffffffffffffffffffffffffffffffffffffff16906020019092919050505061122d565b604051808215151515815260200191505060405180910390f35b34801561033f57600080fd5b5061035e60048036038101908080359060200190929190505050611286565b604051808315151515815260200180602001828103825283818151815260200191508051906020019060200280838360005b838110156103ab578082015181840152602081019050610390565b50505050905001935050505060405180910390f35b3480156103cc57600080fd5b506103eb6004803603810190808035906020019092919050505061131a565b6040518086151515158152602001858152602001806020018060200180602001848103845287818151815260200191508051906020019060200280838360005b8381101561044657808201518184015260208101905061042b565b50505050905001848103835286818151815260200191508051906020019060200280838360005b8381101561048857808201518184015260208101905061046d565b50505050905001848103825285818151815260200191508051906020019060200280838360005b838110156104ca5780820151818401526020810190506104af565b505050509050019850505050505050505060405180910390f35b3480156104f057600080fd5b50610525600480360381019080803573ffffffffffffffffffffffffffffffffffffffff1690602001909291905050506115e1565b005b34801561053357600080fd5b50610552600480360381019080803590602001909291905050506117cb565b005b34801561056057600080fd5b5061057f60048036038101908080359060200190929190505050611a5e565b604051808315151515815260200180602001828103825283818151815260200191508051906020019060200280838360005b838110156105cc5780820151818401526020810190506105b1565b50505050905001935050505060405180910390f35b3480156105ed57600080fd5b50610622600480360381019080803573ffffffffffffffffffffffffffffffffffffffff169060200190929190505050611af5565b604051808315151515815260200180602001828103825283818151815260200191508051906020019060200280838360005b8381101561066f578082015181840152602081019050610654565b50505050905001935050505060405180910390f35b34801561069057600080fd5b506106b96004803603810190808035906020019092919080359060200190929190505050611bef565b005b3480156106c757600080fd5b506106fc600480360381019080803573ffffffffffffffffffffffffffffffffffffffff169060200190929190505050611e3b565b005b34801561070a57600080fd5b5061073f600480360381019080803573ffffffffffffffffffffffffffffffffffffffff169060200190929190505050611fd5565b60405180831515151581526020018281526020019250505060405180910390f35b34801561076c57600080fd5b506107756120c7565b604051808315151515815260200180602001828103825283818151815260200191508051906020019060200280838360005b838110156107c25780820151818401526020810190506107a7565b50505050905001935050505060405180910390f35b3480156107e357600080fd5b506108026004803603810190808035906020019092919050505061220d565b604051808315151515815260200180602001828103825283818151815260200191508051906020019060200280838360005b8381101561084f578082015181840152602081019050610834565b50505050905001935050505060405180910390f35b34801561087057600080fd5b506108796122a4565b60405180841515151581526020018060200180602001838103835285818151815260200191508051906020019060200280838360005b838110156108ca5780820151818401526020810190506108af565b50505050905001838103825284818151815260200191508051906020019060200280838360005b8381101561090c5780820151818401526020810190506108f1565b505050509050019550505050505060405180910390f35b34801561092f57600080fd5b5061095860048036038101908080359060200190929190803590602001909291905050506123a5565b005b34801561096657600080fd5b506109b5600480360381019080803560001916906020019092919080356000191690602001909291908035906020019092919080359060200190929190803590602001909291905050506125de565b005b3480156109c357600080fd5b506109ec60048036038101908080359060200190929190803590602001909291905050506129d1565b005b3480156109fa57600080fd5b50610a2f600480360381019080803573ffffffffffffffffffffffffffffffffffffffff169060200190929190505050612dcc565b005b348015610a3d57600080fd5b50610a7c60048036038101908080359060200190929190803573ffffffffffffffffffffffffffffffffffffffff169060200190929190505050613125565b005b348015610a8a57600080fd5b50610aa9600480360381019080803590602001909291905050506134a4565b60405180881515151581526020018773ffffffffffffffffffffffffffffffffffffffff1673ffffffffffffffffffffffffffffffffffffffff1681526020018681526020018560001916600019168152602001846000191660001916815260200183815260200182815260200197505050505050505060405180910390f35b348015610b3557600080fd5b50610b3e6135a7565b60405180841515151581526020018060200180602001838103835285818151815260200191508051906020019060200280838360005b83811015610b8f578082015181840152602081019050610b74565b50505050905001838103825284818151815260200191508051906020019060200280838360005b83811015610bd1578082015181840152602081019050610bb6565b505050509050019550505050505060405180910390f35b348015610bf457600080fd5b50610c1d60048036038101908080359060200190929190803590602001909291905050506136a8565b005b348015610c2b57600080fd5b50610c6a60048036038101908080359060200190929190803573ffffffffffffffffffffffffffffffffffffffff169060200190929190505050613aa3565b005b348015610c7857600080fd5b50610cad600480360381019080803573ffffffffffffffffffffffffffffffffffffffff169060200190929190505050613c6a565b005b348015610cbb57600080fd5b50610cfa600480360381019080803573ffffffffffffffffffffffffffffffffffffffff16906020019092919080359060200190929190505050613e04565b604051808215151515815260200191505060405180910390f35b348015610d2057600080fd5b50610d5f600480360381019080803573ffffffffffffffffffffffffffffffffffffffff16906020019092919080359060200190929190505050614388565b604051808215151515815260200191505060405180910390f35b6000606082600060036000838152602001908152602001600020600001541415610de5577f2e36a7093f25f22bd4cbdeb6040174c3ba4c5fe8f1abc04e7c3c48f26c7413e06007600e811115610dcb57fe5b6040518082815260200191505060405180910390a1610e57565b600160036000868152602001908152602001600020600b0160020180805480602002602001604051908101604052809291908181526020018280548015610e4b57602002820191906000526020600020905b815481526020019060010190808311610e37575b50505050509050925092505b50915091565b8082610eb58282600260003373ffffffffffffffffffffffffffffffffffffffff1673ffffffffffffffffffffffffffffffffffffffff168152602001908152602001600020600c016143f19092919063ffffffff16565b15610f2057610ec4838561447f565b610f1a8385600260003373ffffffffffffffffffffffffffffffffffffffff1673ffffffffffffffffffffffffffffffffffffffff168152602001908152602001600020600c0161452d9092919063ffffffff16565b50610f64565b7f2e36a7093f25f22bd4cbdeb6040174c3ba4c5fe8f1abc04e7c3c48f26c7413e0600d600e811115610f4e57fe5b6040518082815260200191505060405180910390a15b50505050565b8181610fc28282600260003373ffffffffffffffffffffffffffffffffffffffff1673ffffffffffffffffffffffffffffffffffffffff1681526020019081526020016000206008016143f19092919063ffffffff16565b1561102d57610fd1848461447f565b6110278484600260003373ffffffffffffffffffffffffffffffffffffffff1673ffffffffffffffffffffffffffffffffffffffff16815260200190815260200160002060080161452d9092919063ffffffff16565b50611071565b7f2e36a7093f25f22bd4cbdeb6040174c3ba4c5fe8f1abc04e7c3c48f26c7413e0600c600e81111561105b57fe5b6040518082815260200191505060405180910390a15b50505050565b806110cc81600260003373ffffffffffffffffffffffffffffffffffffffff1673ffffffffffffffffffffffffffffffffffffffff16815260200190815260200160002060050161469a90919063ffffffff16565b15611135576110db82336146ea565b61112f82600260003373ffffffffffffffffffffffffffffffffffffffff1673ffffffffffffffffffffffffffffffffffffffff16815260200190815260200160002060050161480b90919063ffffffff16565b50611179565b7f2e36a7093f25f22bd4cbdeb6040174c3ba4c5fe8f1abc04e7c3c48f26c7413e0600b600e81111561116357fe5b6040518082815260200191505060405180910390a15b5050565b600033600260008273ffffffffffffffffffffffffffffffffffffffff1673ffffffffffffffffffffffffffffffffffffffff16815260200190815260200160002060000160009054906101000a900460ff16151561121e577f2e36a7093f25f22bd4cbdeb6040174c3ba4c5fe8f1abc04e7c3c48f26c7413e06002600e81111561120457fe5b6040518082815260200191505060405180910390a1611229565b611227336148e1565b505b5090565b6000600160008373ffffffffffffffffffffffffffffffffffffffff1673ffffffffffffffffffffffffffffffffffffffff16815260200190815260200160002060000160009054906101000a900460ff169050919050565b60006060826000600360008381526020019081526020016000206000015414156112f2577f2e36a7093f25f22bd4cbdeb6040174c3ba4c5fe8f1abc04e7c3c48f26c7413e06007600e8111156112d857fe5b6040518082815260200191505060405180910390a1611314565b600161130f60036000878152602001908152602001600020614c3f565b925092505b50915091565b6000806060806060806000808860006003600083815260200190815260200160002060000154141561138e577f2e36a7093f25f22bd4cbdeb6040174c3ba4c5fe8f1abc04e7c3c48f26c7413e06007600e81111561137457fe5b6040518082815260200191505060405180910390a16115d4565b600360008b8152602001908152602001600020600e016002018054806020026020016040519081016040528092919081815260200182805480156113f157602002820191906000526020600020905b8154815260200190600101908083116113dd575b5050505050935083516040519080825280602002602001820160405280156114285781602001602082028038833980820191505090505b509650835160405190808252806020026020018201604052801561145b5781602001602082028038833980820191505090505b509550835160405190808252806020026020018201604052801561148e5781602001602082028038833980820191505090505b50945060009750600092505b83518310156115cf5783838151811015156114b157fe5b90602001906020020151915061151d60046000848152602001908152602001600020600501604080519081016040529081600082015481526020016001820160009054906101000a900460ff16600281111561150957fe5b600281111561151457fe5b81525050614da5565b156115c25781878981518110151561153157fe5b90602001906020020181815250506004600083815260200190815260200160002060030154868981518110151561156457fe5b906020019060200201906000191690816000191681525050600460008381526020019081526020016000206004015485898151811015156115a157fe5b90602001906020020190600019169081600019168152505087806001019850505b828060010193505061149a565b600198505b5050505091939590929450565b6000809054906101000a900473ffffffffffffffffffffffffffffffffffffffff1673ffffffffffffffffffffffffffffffffffffffff163373ffffffffffffffffffffffffffffffffffffffff1614151561167f577f2e36a7093f25f22bd4cbdeb6040174c3ba4c5fe8f1abc04e7c3c48f26c7413e06000600e81111561166557fe5b6040518082815260200191505060405180910390a16117c8565b600160008273ffffffffffffffffffffffffffffffffffffffff1673ffffffffffffffffffffffffffffffffffffffff16815260200190815260200160002060000160009054906101000a900460ff1615156117c75760018060008373ffffffffffffffffffffffffffffffffffffffff1673ffffffffffffffffffffffffffffffffffffffff16815260200190815260200160002060000160006101000a81548160ff0219169083151502179055507f58697455980eb59b944b84384c012fa6b32a3364287414201b3dcbea7acdaf638133604051808373ffffffffffffffffffffffffffffffffffffffff1673ffffffffffffffffffffffffffffffffffffffff1681526020018273ffffffffffffffffffffffffffffffffffffffff1673ffffffffffffffffffffffffffffffffffffffff1681526020019250505060405180910390a15b5b50565b33600260008273ffffffffffffffffffffffffffffffffffffffff1673ffffffffffffffffffffffffffffffffffffffff16815260200190815260200160002060000160009054906101000a900460ff16151561186a577f2e36a7093f25f22bd4cbdeb6040174c3ba4c5fe8f1abc04e7c3c48f26c7413e06002600e81111561185057fe5b6040518082815260200191505060405180910390a1611a5a565b816000600460008381526020019081526020016000206001015414156118d2577f2e36a7093f25f22bd4cbdeb6040174c3ba4c5fe8f1abc04e7c3c48f26c7413e06006600e8111156118b857fe5b6040518082815260200191505060405180910390a1611a58565b826118dd3382613e04565b151561192b577f2e36a7093f25f22bd4cbdeb6040174c3ba4c5fe8f1abc04e7c3c48f26c7413e06004600e81111561191157fe5b6040518082815260200191505060405180910390a1611a56565b611969846003600060046000898152602001908152602001600020600201548152602001908152602001600020600e0161480b90919063ffffffff16565b5060046000858152602001908152602001600020600080820160006101000a81549073ffffffffffffffffffffffffffffffffffffffff02191690556001820160009055600282016000905560038201600090556004820160009055600582016000808201600090556001820160006101000a81549060ff0219169055505050507fe582117380741fd5113901e90d14d670ea4a7282622d86e10ab7cb4b3bfb5ffb8433604051808381526020018273ffffffffffffffffffffffffffffffffffffffff1673ffffffffffffffffffffffffffffffffffffffff1681526020019250505060405180910390a15b505b505b5050565b6000606082600060036000838152602001908152602001600020600001541415611aca577f2e36a7093f25f22bd4cbdeb6040174c3ba4c5fe8f1abc04e7c3c48f26c7413e06007600e811115611ab057fe5b6040518082815260200191505060405180910390a1611aef565b6001611aea60036000878152602001908152602001600020600501614dd6565b925092505b50915091565b6000606082600260008273ffffffffffffffffffffffffffffffffffffffff1673ffffffffffffffffffffffffffffffffffffffff16815260200190815260200160002060000160009054906101000a900460ff161515611b98577f2e36a7093f25f22bd4cbdeb6040174c3ba4c5fe8f1abc04e7c3c48f26c7413e06002600e811115611b7e57fe5b6040518082815260200191505060405180910390a1611be9565b6001611be4600260003373ffffffffffffffffffffffffffffffffffffffff1673ffffffffffffffffffffffffffffffffffffffff168152602001908152602001600020600201614dd6565b925092505b50915091565b600080600080600033878173ffffffffffffffffffffffffffffffffffffffff166003600083815260200190815260200160002060010160009054906101000a900473ffffffffffffffffffffffffffffffffffffffff1673ffffffffffffffffffffffffffffffffffffffff16141515611cac577f2e36a7093f25f22bd4cbdeb6040174c3ba4c5fe8f1abc04e7c3c48f26c7413e06009600e811115611c9257fe5b6040518082815260200191505060405180910390a1611e30565b8888611cd68160036000858152602001908152602001600020600b0161469a90919063ffffffff16565b15611dea57611d038a600360008e8152602001908152602001600020600b0161480b90919063ffffffff16565b50611d2c8a600360008e8152602001908152602001600020600e01614e6c90919063ffffffff16565b50611d368a6134a4565b9a509a509a509a50509950507f60b63251b9325578f489c9a2fe656471c59ce231b73bbe4c921ad52fbee7e6f98a8c8a8a8a8a3360405180888152602001878152602001866000191660001916815260200185600019166000191681526020018481526020018381526020018273ffffffffffffffffffffffffffffffffffffffff1673ffffffffffffffffffffffffffffffffffffffff16815260200197505050505050505060405180910390a1611e2d565b7f2e36a7093f25f22bd4cbdeb6040174c3ba4c5fe8f1abc04e7c3c48f26c7413e0600e80811115611e1757fe5b6040518082815260200191505060405180910390a15b50505b505050505050505050565b33600260008273ffffffffffffffffffffffffffffffffffffffff1673ffffffffffffffffffffffffffffffffffffffff16815260200190815260200160002060000160009054906101000a900460ff161515611eda577f2e36a7093f25f22bd4cbdeb6040174c3ba4c5fe8f1abc04e7c3c48f26c7413e06002600e811115611ec057fe5b6040518082815260200191505060405180910390a1611fd1565b81600260008273ffffffffffffffffffffffffffffffffffffffff1673ffffffffffffffffffffffffffffffffffffffff16815260200190815260200160002060000160009054906101000a900460ff161515611f79577f2e36a7093f25f22bd4cbdeb6040174c3ba4c5fe8f1abc04e7c3c48f26c7413e06002600e811115611f5f57fe5b6040518082815260200191505060405180910390a1611fcf565b611fcd83600260003373ffffffffffffffffffffffffffffffffffffffff1673ffffffffffffffffffffffffffffffffffffffff168152602001908152602001600020601001614eda90919063ffffffff16565b505b505b5050565b60008082600260008273ffffffffffffffffffffffffffffffffffffffff1673ffffffffffffffffffffffffffffffffffffffff16815260200190815260200160002060000160009054906101000a900460ff161515612077577f2e36a7093f25f22bd4cbdeb6040174c3ba4c5fe8f1abc04e7c3c48f26c7413e06002600e81111561205d57fe5b6040518082815260200191505060405180910390a16120c1565b6001600260008673ffffffffffffffffffffffffffffffffffffffff1673ffffffffffffffffffffffffffffffffffffffff16815260200190815260200160002060010154925092505b50915091565b6000606033600260008273ffffffffffffffffffffffffffffffffffffffff1673ffffffffffffffffffffffffffffffffffffffff16815260200190815260200160002060000160009054906101000a900460ff16151561216a577f2e36a7093f25f22bd4cbdeb6040174c3ba4c5fe8f1abc04e7c3c48f26c7413e06002600e81111561215057fe5b6040518082815260200191505060405180910390a1612208565b6001600260003373ffffffffffffffffffffffffffffffffffffffff1673ffffffffffffffffffffffffffffffffffffffff168152602001908152602001600020600501600201808054806020026020016040519081016040528092919081815260200182805480156121fc57602002820191906000526020600020905b8154815260200190600101908083116121e8575b50505050509050925092505b509091565b6000606082600060036000838152602001908152602001600020600001541415612279577f2e36a7093f25f22bd4cbdeb6040174c3ba4c5fe8f1abc04e7c3c48f26c7413e06007600e81111561225f57fe5b6040518082815260200191505060405180910390a161229e565b600161229960036000878152602001908152602001600020600801614dd6565b925092505b50915091565b600060608033600260008273ffffffffffffffffffffffffffffffffffffffff1673ffffffffffffffffffffffffffffffffffffffff16815260200190815260200160002060000160009054906101000a900460ff161515612348577f2e36a7093f25f22bd4cbdeb6040174c3ba4c5fe8f1abc04e7c3c48f26c7413e06002600e81111561232e57fe5b6040518082815260200191505060405180910390a161239f565b612392600260003373ffffffffffffffffffffffffffffffffffffffff1673ffffffffffffffffffffffffffffffffffffffff168152602001908152602001600020600c01614fae565b8093508194505050600193505b50909192565b8160006003600083815260200190815260200160002060000154141561240d577f2e36a7093f25f22bd4cbdeb6040174c3ba4c5fe8f1abc04e7c3c48f26c7413e06007600e8111156123f357fe5b6040518082815260200191505060405180910390a16125d9565b81600060036000838152602001908152602001600020600001541415612475577f2e36a7093f25f22bd4cbdeb6040174c3ba4c5fe8f1abc04e7c3c48f26c7413e06007600e81111561245b57fe5b6040518082815260200191505060405180910390a16125d7565b33848173ffffffffffffffffffffffffffffffffffffffff166003600083815260200190815260200160002060010160009054906101000a900473ffffffffffffffffffffffffffffffffffffffff1673ffffffffffffffffffffffffffffffffffffffff1614151561252a577f2e36a7093f25f22bd4cbdeb6040174c3ba4c5fe8f1abc04e7c3c48f26c7413e06009600e81111561251057fe5b6040518082815260200191505060405180910390a16125d4565b61256160036000878152602001908152602001600020600360008981526020019081526020016000206150bc90919063ffffffff16565b7ec52f2dd3f4ebca078e0a4fafe5f527b808bb930d97fda10b510f952d8bc95c868633604051808481526020018381526020018273ffffffffffffffffffffffffffffffffffffffff1673ffffffffffffffffffffffffffffffffffffffff168152602001935050505060405180910390a15b50505b505b505050565b600033600260008273ffffffffffffffffffffffffffffffffffffffff1673ffffffffffffffffffffffffffffffffffffffff16815260200190815260200160002060000160009054906101000a900460ff16151561267f577f2e36a7093f25f22bd4cbdeb6040174c3ba4c5fe8f1abc04e7c3c48f26c7413e06002600e81111561266557fe5b6040518082815260200191505060405180910390a16129c8565b846000600360008381526020019081526020016000206000015414156126e7577f2e36a7093f25f22bd4cbdeb6040174c3ba4c5fe8f1abc04e7c3c48f26c7413e06007600e8111156126cd57fe5b6040518082815260200191505060405180910390a16129c6565b6005600081546001019190508190559250336004600085815260200190815260200160002060000160006101000a81548173ffffffffffffffffffffffffffffffffffffffff021916908373ffffffffffffffffffffffffffffffffffffffff160217905550826004600085815260200190815260200160002060010181905550856004600085815260200190815260200160002060020181905550876004600085815260200190815260200160002060030181600019169055508660046000858152602001908152602001600020600401816000191690555060008511156127eb5784420160046000858152602001908152602001600020600501600001819055505b6127f4846150f6565b6004600085815260200190815260200160002060050160010160006101000a81548160ff0219169083600281111561282857fe5b0217905550612852336003600089815260200190815260200160002061513690919063ffffffff16565b156129285761287f8360036000898152602001908152602001600020600e01614e6c90919063ffffffff16565b507f60b63251b9325578f489c9a2fe656471c59ce231b73bbe4c921ad52fbee7e6f983878a8a89893360405180888152602001878152602001866000191660001916815260200185600019166000191681526020018481526020018381526020018273ffffffffffffffffffffffffffffffffffffffff1673ffffffffffffffffffffffffffffffffffffffff16815260200197505050505050505060405180910390a16129c5565b6129508360036000898152602001908152602001600020600b01614e6c90919063ffffffff16565b507f2f590346cff7b633fe26b8eb43c71b6d9438eeb3e275751322178da9df7311fe868433604051808481526020018381526020018273ffffffffffffffffffffffffffffffffffffffff1673ffffffffffffffffffffffffffffffffffffffff168152602001935050505060405180910390a15b5b505b50505050505050565b600033600260008273ffffffffffffffffffffffffffffffffffffffff1673ffffffffffffffffffffffffffffffffffffffff16815260200190815260200160002060000160009054906101000a900460ff161515612a72577f2e36a7093f25f22bd4cbdeb6040174c3ba4c5fe8f1abc04e7c3c48f26c7413e06002600e811115612a5857fe5b6040518082815260200191505060405180910390a1612dc6565b83600060036000838152602001908152602001600020600001541415612ada577f2e36a7093f25f22bd4cbdeb6040174c3ba4c5fe8f1abc04e7c3c48f26c7413e06007600e811115612ac057fe5b6040518082815260200191505060405180910390a1612dc4565b83600060036000838152602001908152602001600020600001541415612b42577f2e36a7093f25f22bd4cbdeb6040174c3ba4c5fe8f1abc04e7c3c48f26c7413e06007600e811115612b2857fe5b6040518082815260200191505060405180910390a1612dc2565b33868173ffffffffffffffffffffffffffffffffffffffff166003600083815260200190815260200160002060010160009054906101000a900473ffffffffffffffffffffffffffffffffffffffff1673ffffffffffffffffffffffffffffffffffffffff16141515612bf7577f2e36a7093f25f22bd4cbdeb6040174c3ba4c5fe8f1abc04e7c3c48f26c7413e06009600e811115612bdd57fe5b6040518082815260200191505060405180910390a1612dbf565b6003600088815260200190815260200160002060010160009054906101000a900473ffffffffffffffffffffffffffffffffffffffff169550612c8433600260008973ffffffffffffffffffffffffffffffffffffffff1673ffffffffffffffffffffffffffffffffffffffff1681526020019081526020016000206010016151b090919063ffffffff16565b15612c9857612c93888861447f565b612dbe565b612cec33600260008973ffffffffffffffffffffffffffffffffffffffff1673ffffffffffffffffffffffffffffffffffffffff1681526020019081526020016000206013016151b090919063ffffffff16565b1515612dbd57612d488888600260008a73ffffffffffffffffffffffffffffffffffffffff1673ffffffffffffffffffffffffffffffffffffffff1681526020019081526020016000206008016152789092919063ffffffff16565b507f857a7f9c23beeab205fa73b964048d3bec4a62ef68c42752bc4c01f23bcbd78e888833604051808481526020018381526020018273ffffffffffffffffffffffffffffffffffffffff1673ffffffffffffffffffffffffffffffffffffffff168152602001935050505060405180910390a15b5b5b50505b505b505b50505050565b600160003373ffffffffffffffffffffffffffffffffffffffff1673ffffffffffffffffffffffffffffffffffffffff16815260200190815260200160002060000160009054906101000a900460ff161515612e6a577f2e36a7093f25f22bd4cbdeb6040174c3ba4c5fe8f1abc04e7c3c48f26c7413e06003600e811115612e5057fe5b6040518082815260200191505060405180910390a1613122565b80600260008273ffffffffffffffffffffffffffffffffffffffff1673ffffffffffffffffffffffffffffffffffffffff16815260200190815260200160002060000160009054906101000a900460ff1615612f08577f2e36a7093f25f22bd4cbdeb6040174c3ba4c5fe8f1abc04e7c3c48f26c7413e06001600e811115612eee57fe5b6040518082815260200191505060405180910390a1613120565b6001600260008473ffffffffffffffffffffffffffffffffffffffff1673ffffffffffffffffffffffffffffffffffffffff16815260200190815260200160002060000160006101000a81548160ff02191690831515021790555033600260008473ffffffffffffffffffffffffffffffffffffffff1673ffffffffffffffffffffffffffffffffffffffff16815260200190815260200160002060000160016101000a81548173ffffffffffffffffffffffffffffffffffffffff021916908373ffffffffffffffffffffffffffffffffffffffff16021790555061303882600260008573ffffffffffffffffffffffffffffffffffffffff1673ffffffffffffffffffffffffffffffffffffffff168152602001908152602001600020601001614eda90919063ffffffff16565b507f263d398af3bd0e797da25e9dc29a23286e999826d13a16fca996d1ddd1eb52818233604051808373ffffffffffffffffffffffffffffffffffffffff1673ffffffffffffffffffffffffffffffffffffffff1681526020018273ffffffffffffffffffffffffffffffffffffffff1673ffffffffffffffffffffffffffffffffffffffff1681526020019250505060405180910390a16130d9826148e1565b600260008473ffffffffffffffffffffffffffffffffffffffff1673ffffffffffffffffffffffffffffffffffffffff168152602001908152602001600020600101819055505b505b50565b8160006003600083815260200190815260200160002060000154141561318d577f2e36a7093f25f22bd4cbdeb6040174c3ba4c5fe8f1abc04e7c3c48f26c7413e06007600e81111561317357fe5b6040518082815260200191505060405180910390a161349f565b81600260008273ffffffffffffffffffffffffffffffffffffffff1673ffffffffffffffffffffffffffffffffffffffff16815260200190815260200160002060000160009054906101000a900460ff16151561322c577f2e36a7093f25f22bd4cbdeb6040174c3ba4c5fe8f1abc04e7c3c48f26c7413e06002600e81111561321257fe5b6040518082815260200191505060405180910390a161349d565b33848173ffffffffffffffffffffffffffffffffffffffff166003600083815260200190815260200160002060010160009054906101000a900473ffffffffffffffffffffffffffffffffffffffff1673ffffffffffffffffffffffffffffffffffffffff161415156132e1577f2e36a7093f25f22bd4cbdeb6040174c3ba4c5fe8f1abc04e7c3c48f26c7413e06009600e8111156132c757fe5b6040518082815260200191505060405180910390a161349a565b61333533600260008873ffffffffffffffffffffffffffffffffffffffff1673ffffffffffffffffffffffffffffffffffffffff1681526020019081526020016000206010016151b090919063ffffffff16565b156133495761334486866146ea565b613499565b61339d33600260008873ffffffffffffffffffffffffffffffffffffffff1673ffffffffffffffffffffffffffffffffffffffff1681526020019081526020016000206013016151b090919063ffffffff16565b1515613498576133f786600260008873ffffffffffffffffffffffffffffffffffffffff1673ffffffffffffffffffffffffffffffffffffffff168152602001908152602001600020600501614e6c90919063ffffffff16565b507fe63903661c7fd9f5d0f34c4538698f90323736b2fbad776c000b32aa033627b8868633604051808481526020018373ffffffffffffffffffffffffffffffffffffffff1673ffffffffffffffffffffffffffffffffffffffff1681526020018273ffffffffffffffffffffffffffffffffffffffff1673ffffffffffffffffffffffffffffffffffffffff168152602001935050505060405180910390a15b5b5b50505b505b505050565b60008060008060008060008088600060046000838152602001908152602001600020600101541415613518577f2e36a7093f25f22bd4cbdeb6040174c3ba4c5fe8f1abc04e7c3c48f26c7413e06006600e8111156134fe57fe5b6040518082815260200191505060405180910390a161359a565b600460008b815260200190815260200160002091508160000160009054906101000a900473ffffffffffffffffffffffffffffffffffffffff169750816002015496508160030154955081600401549450816005016000015493508160050160010160009054906101000a900460ff16600281111561359357fe5b9250600198505b5050919395979092949650565b600060608033600260008273ffffffffffffffffffffffffffffffffffffffff1673ffffffffffffffffffffffffffffffffffffffff16815260200190815260200160002060000160009054906101000a900460ff16151561364b577f2e36a7093f25f22bd4cbdeb6040174c3ba4c5fe8f1abc04e7c3c48f26c7413e06002600e81111561363157fe5b6040518082815260200191505060405180910390a16136a2565b613695600260003373ffffffffffffffffffffffffffffffffffffffff1673ffffffffffffffffffffffffffffffffffffffff168152602001908152602001600020600801614fae565b8093508194505050600193505b50909192565b600033600260008273ffffffffffffffffffffffffffffffffffffffff1673ffffffffffffffffffffffffffffffffffffffff16815260200190815260200160002060000160009054906101000a900460ff161515613749577f2e36a7093f25f22bd4cbdeb6040174c3ba4c5fe8f1abc04e7c3c48f26c7413e06002600e81111561372f57fe5b6040518082815260200191505060405180910390a1613a9d565b836000600360008381526020019081526020016000206000015414156137b1577f2e36a7093f25f22bd4cbdeb6040174c3ba4c5fe8f1abc04e7c3c48f26c7413e06007600e81111561379757fe5b6040518082815260200191505060405180910390a1613a9b565b83600060036000838152602001908152602001600020600001541415613819577f2e36a7093f25f22bd4cbdeb6040174c3ba4c5fe8f1abc04e7c3c48f26c7413e06007600e8111156137ff57fe5b6040518082815260200191505060405180910390a1613a99565b33868173ffffffffffffffffffffffffffffffffffffffff166003600083815260200190815260200160002060010160009054906101000a900473ffffffffffffffffffffffffffffffffffffffff1673ffffffffffffffffffffffffffffffffffffffff161415156138ce577f2e36a7093f25f22bd4cbdeb6040174c3ba4c5fe8f1abc04e7c3c48f26c7413e06009600e8111156138b457fe5b6040518082815260200191505060405180910390a1613a96565b6003600088815260200190815260200160002060010160009054906101000a900473ffffffffffffffffffffffffffffffffffffffff16955061395b33600260008973ffffffffffffffffffffffffffffffffffffffff1673ffffffffffffffffffffffffffffffffffffffff1681526020019081526020016000206010016151b090919063ffffffff16565b1561396f5761396a878961447f565b613a95565b6139c333600260008973ffffffffffffffffffffffffffffffffffffffff1673ffffffffffffffffffffffffffffffffffffffff1681526020019081526020016000206013016151b090919063ffffffff16565b1515613a9457613a1f8789600260008a73ffffffffffffffffffffffffffffffffffffffff1673ffffffffffffffffffffffffffffffffffffffff168152602001908152602001600020600c016152789092919063ffffffff16565b507f12a37379df6e2a53ebdfa93b66c94eca567d1a7f4e81feecd5531e0e5f64d4fd888833604051808481526020018381526020018273ffffffffffffffffffffffffffffffffffffffff1673ffffffffffffffffffffffffffffffffffffffff168152602001935050505060405180910390a15b5b5b50505b505b505b50505050565b81600060036000838152602001908152602001600020600001541415613b0b577f2e36a7093f25f22bd4cbdeb6040174c3ba4c5fe8f1abc04e7c3c48f26c7413e06007600e811115613af157fe5b6040518082815260200191505060405180910390a1613c65565b33838173ffffffffffffffffffffffffffffffffffffffff166003600083815260200190815260200160002060010160009054906101000a900473ffffffffffffffffffffffffffffffffffffffff1673ffffffffffffffffffffffffffffffffffffffff16141515613bc0577f2e36a7093f25f22bd4cbdeb6040174c3ba4c5fe8f1abc04e7c3c48f26c7413e06009600e811115613ba657fe5b6040518082815260200191505060405180910390a1613c62565b8385613be7826003600084815260200190815260200160002061513690919063ffffffff16565b1515613c35577f2e36a7093f25f22bd4cbdeb6040174c3ba4c5fe8f1abc04e7c3c48f26c7413e06008600e811115613c1b57fe5b6040518082815260200191505060405180910390a1613c5f565b613c5d86600360008a815260200190815260200160002060020161532d90919063ffffffff16565b505b50505b50505b505050565b33600260008273ffffffffffffffffffffffffffffffffffffffff1673ffffffffffffffffffffffffffffffffffffffff16815260200190815260200160002060000160009054906101000a900460ff161515613d09577f2e36a7093f25f22bd4cbdeb6040174c3ba4c5fe8f1abc04e7c3c48f26c7413e06002600e811115613cef57fe5b6040518082815260200191505060405180910390a1613e00565b81600260008273ffffffffffffffffffffffffffffffffffffffff1673ffffffffffffffffffffffffffffffffffffffff16815260200190815260200160002060000160009054906101000a900460ff161515613da8577f2e36a7093f25f22bd4cbdeb6040174c3ba4c5fe8f1abc04e7c3c48f26c7413e06002600e811115613d8e57fe5b6040518082815260200191505060405180910390a1613dfe565b613dfc83600260003373ffffffffffffffffffffffffffffffffffffffff1673ffffffffffffffffffffffffffffffffffffffff168152602001908152602001600020601301614eda90919063ffffffff16565b505b505b5050565b6000613e0e6156e7565b6000600260008673ffffffffffffffffffffffffffffffffffffffff1673ffffffffffffffffffffffffffffffffffffffff16815260200190815260200160002061012060405190810160405290816000820160009054906101000a900460ff161515151581526020016000820160019054906101000a900473ffffffffffffffffffffffffffffffffffffffff1673ffffffffffffffffffffffffffffffffffffffff1673ffffffffffffffffffffffffffffffffffffffff16815260200160018201548152602001600282016040805190810160405290816000820160009054906101000a900460ff1615151515815260200160028201805480602002602001604051908101604052809291908181526020018280548015613f5157602002820191906000526020600020905b815481526020019060010190808311613f3d575b5050505050815250508152602001600582016040805190810160405290816000820160009054906101000a900460ff1615151515815260200160028201805480602002602001604051908101604052809291908181526020018280548015613fd857602002820191906000526020600020905b815481526020019060010190808311613fc4575b505050505081525050815260200160088201606060405190810160405290816000820160009054906101000a900460ff161515151581526020016002820180548060200260200160405190810160405280929190818152602001828054801561406057602002820191906000526020600020905b81548152602001906001019080831161404c575b50505050508152602001600382018054806020026020016040519081016040528092919081815260200182805480156140b857602002820191906000526020600020905b8154815260200190600101908083116140a4575b5050505050815250508152602001600c8201606060405190810160405290816000820160009054906101000a900460ff161515151581526020016002820180548060200260200160405190810160405280929190818152602001828054801561414057602002820191906000526020600020905b81548152602001906001019080831161412c575b505050505081526020016003820180548060200260200160405190810160405280929190818152602001828054801561419857602002820191906000526020600020905b815481526020019060010190808311614184575b5050505050815250508152602001601082016040805190810160405290816000820160009054906101000a900460ff161515151581526020016002820180548060200260200160405190810160405280929190818152602001828054801561425557602002820191906000526020600020905b8160009054906101000a900473ffffffffffffffffffffffffffffffffffffffff1673ffffffffffffffffffffffffffffffffffffffff168152602001906001019080831161420b575b5050505050815250508152602001601382016040805190810160405290816000820160009054906101000a900460ff161515151581526020016002820180548060200260200160405190810160405280929190818152602001828054801561431257602002820191906000526020600020905b8160009054906101000a900473ffffffffffffffffffffffffffffffffffffffff1673ffffffffffffffffffffffffffffffffffffffff16815260200190600101908083116142c8575b505050505081525050815250509150600090505b8160600151602001515181101561437b576143608260600151602001518281518110151561435057fe5b90602001906020020151856154e1565b1561436e5760019250614380565b8080600101915050614326565b600092505b505092915050565b60006060600061439785611af5565b925050600090505b81518110156143e4576143c982828151811015156143b957fe5b906020019060200201518561557b565b156143d757600192506143e9565b808060010191505061439f565b600092505b505092915050565b6000808460010160008581526020019081526020016000206000848152602001908152602001600020549050600085600201805490501415801561444f575083856002018281548110151561444257fe5b9060005260206000200154145b8015614475575082856003018281548110151561446857fe5b9060005260206000200154145b9150509392505050565b6144b6600360008381526020019081526020016000206003600085815260200190815260200160002061561590919063ffffffff16565b7f2b736b0ab630b8e48f63a590039427e35f8cfbfc6bfe93d2d0ec30fe1325d111828233604051808481526020018381526020018273ffffffffffffffffffffffffffffffffffffffff1673ffffffffffffffffffffffffffffffffffffffff168152602001935050505060405180910390a15050565b60008060008061453e8787876143f1565b151561454d5760009350614690565b86600101600087815260200190815260200160002060008681526020019081526020016000205492508660010160008781526020019081526020016000206000868152602001908152602001600020600090558660020160018860020180549050038154811015156145bb57fe5b906000526020600020015491508660030160018860030180549050038154811015156145e357fe5b906000526020600020015490508287600101600084815260200190815260200160002060008381526020019081526020016000208190555081876002018481548110151561462d57fe5b9060005260206000200181905550866002018054809190600190036146529190615770565b5080876003018481548110151561466557fe5b90600052602060002001819055508660030180548091906001900361468a9190615770565b50600193505b5050509392505050565b6000808360020180549050141580156146e257508183600201846001016000858152602001908152602001600020548154811015156146d557fe5b9060005260206000200154145b905092915050565b61473e82600260008473ffffffffffffffffffffffffffffffffffffffff1673ffffffffffffffffffffffffffffffffffffffff168152602001908152602001600020600201614e6c90919063ffffffff16565b506147678160036000858152602001908152602001600020600201614eda90919063ffffffff16565b507f8894616f80bfa19aa1cb7c2809766bb29b53d3faeea971f72fafc3da88c2d01a818333604051808473ffffffffffffffffffffffffffffffffffffffff1673ffffffffffffffffffffffffffffffffffffffff1681526020018381526020018273ffffffffffffffffffffffffffffffffffffffff1673ffffffffffffffffffffffffffffffffffffffff168152602001935050505060405180910390a15050565b600080600061481a858561469a565b151561482957600092506148d9565b84600101600085815260200190815260200160002054915084600201600186600201805490500381548110151561485c57fe5b906000526020600020015490508185600101600083815260200190815260200160002081905550846001016000858152602001908152602001600020600090558085600201838154811015156148ae57fe5b9060005260206000200181905550846002018054809190600190036148d39190615770565b50600192505b505092915050565b60008060036000600160065401815260200190815260200160002090506006600081546001019190508190558160000181905550806003600083600001548152602001908152602001600020600082015481600001556001820160009054906101000a900473ffffffffffffffffffffffffffffffffffffffff168160010160006101000a81548173ffffffffffffffffffffffffffffffffffffffff021916908373ffffffffffffffffffffffffffffffffffffffff16021790555060028201816002016000820160009054906101000a900460ff168160000160006101000a81548160ff02191690831515021790555060028201816002019080546149e992919061579c565b50505060058201816005016000820160009054906101000a900460ff168160000160006101000a81548160ff0219169083151502179055506002820181600201908054614a379291906157ee565b50505060088201816008016000820160009054906101000a900460ff168160000160006101000a81548160ff0219169083151502179055506002820181600201908054614a859291906157ee565b505050600b820181600b016000820160009054906101000a900460ff168160000160006101000a81548160ff0219169083151502179055506002820181600201908054614ad39291906157ee565b505050600e820181600e016000820160009054906101000a900460ff168160000160006101000a81548160ff0219169083151502179055506002820181600201908054614b219291906157ee565b505050905050828160010160006101000a81548173ffffffffffffffffffffffffffffffffffffffff021916908373ffffffffffffffffffffffffffffffffffffffff160217905550614bc28160000154600260008673ffffffffffffffffffffffffffffffffffffffff1673ffffffffffffffffffffffffffffffffffffffff168152602001908152602001600020600201614e6c90919063ffffffff16565b507f6958b51b54d963fa8eeeea5b61b83a9ad28f9ee9d5a2f1b8495e6866cb534bb1816000015484604051808381526020018273ffffffffffffffffffffffffffffffffffffffff1673ffffffffffffffffffffffffffffffffffffffff1681526020019250505060405180910390a18060000154915050919050565b606060006001836002016002018054905001604051908082528060200260200182016040528015614c7f5781602001602082028038833980820191505090505b509150600090505b6001825103811015614d29578260020160020181815481101515614ca757fe5b9060005260206000200160009054906101000a900473ffffffffffffffffffffffffffffffffffffffff168282815181101515614ce057fe5b9060200190602002019073ffffffffffffffffffffffffffffffffffffffff16908173ffffffffffffffffffffffffffffffffffffffff16815250508080600101915050614c87565b8260010160009054906101000a900473ffffffffffffffffffffffffffffffffffffffff16826001845103815181101515614d6057fe5b9060200190602002019073ffffffffffffffffffffffffffffffffffffffff16908173ffffffffffffffffffffffffffffffffffffffff168152505081915050919050565b6000614db08261564f565b8015614dcf5750600082600001511480614dce575081600001514211155b5b9050919050565b606060008260020180549050604051908082528060200260200182016040528015614e105781602001602082028038833980820191505090505b509150600090505b8151811015614e66578260020181815481101515614e3257fe5b90600052602060002001548282815181101515614e4b57fe5b90602001906020020181815250508080600101915050614e18565b50919050565b6000614e78838361469a565b15614e865760009050614ed4565b60018360020183908060018154018082558091505090600182039060005260206000200160009091929091909150550383600101600084815260200190815260200160002081905550600190505b92915050565b6000614ee683836151b0565b15614ef45760009050614fa8565b6001836002018390806001815401808255809150509060018203906000526020600020016000909192909190916101000a81548173ffffffffffffffffffffffffffffffffffffffff021916908373ffffffffffffffffffffffffffffffffffffffff160217905550038360010160008473ffffffffffffffffffffffffffffffffffffffff1673ffffffffffffffffffffffffffffffffffffffff16815260200190815260200160002081905550600190505b92915050565b60608060008360020180549050604051908082528060200260200182016040528015614fe95781602001602082028038833980820191505090505b50925083600201805490506040519080825280602002602001820160405280156150225781602001602082028038833980820191505090505b509150600090505b83600201805490508110156150b657836002018181548110151561504a57fe5b9060005260206000200154838281518110151561506357fe5b9060200190602002018181525050836003018181548110151561508257fe5b9060005260206000200154828281518110151561509b57fe5b9060200190602002018181525050808060010191505061502a565b50915091565b6150d681600001548360080161480b90919063ffffffff16565b506150f182600001548260050161480b90919063ffffffff16565b505050565b60006002821115151561510857600080fd5b600182141561511a5760019050615131565b600282141561512c5760029050615131565b600090505b919050565b60008173ffffffffffffffffffffffffffffffffffffffff168360010160009054906101000a900473ffffffffffffffffffffffffffffffffffffffff1673ffffffffffffffffffffffffffffffffffffffff1614806151a857506151a782846002016151b090919063ffffffff16565b5b905092915050565b60008083600201805490501415801561527057508173ffffffffffffffffffffffffffffffffffffffff16836002018460010160008573ffffffffffffffffffffffffffffffffffffffff1673ffffffffffffffffffffffffffffffffffffffff1681526020019081526020016000205481548110151561522d57fe5b9060005260206000200160009054906101000a900473ffffffffffffffffffffffffffffffffffffffff1673ffffffffffffffffffffffffffffffffffffffff16145b905092915050565b60006152858484846143f1565b156152935760009050615326565b83600201805490508460010160008581526020019081526020016000206000848152602001908152602001600020819055508360020183908060018154018082558091505090600182039060005260206000200160009091929091909150555083600301829080600181540180825580915050906001820390600052602060002001600090919290919091505550600190505b9392505050565b600080600061533c85856151b0565b151561534b57600092506154d9565b8460010160008573ffffffffffffffffffffffffffffffffffffffff1673ffffffffffffffffffffffffffffffffffffffff1681526020019081526020016000205491508460020160018660020180549050038154811015156153aa57fe5b9060005260206000200160009054906101000a900473ffffffffffffffffffffffffffffffffffffffff169050818560010160008373ffffffffffffffffffffffffffffffffffffffff1673ffffffffffffffffffffffffffffffffffffffff168152602001908152602001600020819055508460010160008573ffffffffffffffffffffffffffffffffffffffff1673ffffffffffffffffffffffffffffffffffffffff1681526020019081526020016000206000905580856002018381548110151561547457fe5b9060005260206000200160006101000a81548173ffffffffffffffffffffffffffffffffffffffff021916908373ffffffffffffffffffffffffffffffffffffffff160217905550846002018054809190600190036154d39190615840565b50600192505b505092915050565b600061550b8260036000868152602001908152602001600020600e0161469a90919063ffffffff16565b8015615573575061557260046000848152602001908152602001600020600501604080519081016040529081600082015481526020016001820160009054906101000a900460ff16600281111561555e57fe5b600281111561556957fe5b81525050615676565b5b905092915050565b60006155a58260036000868152602001908152602001600020600e0161469a90919063ffffffff16565b801561560d575061560c60046000848152602001908152602001600020600501604080519081016040529081600082015481526020016001820160009054906101000a900460ff1660028111156155f857fe5b600281111561560357fe5b815250506156ae565b5b905092915050565b61562f816000015483600801614e6c90919063ffffffff16565b5061564a826000015482600501614e6c90919063ffffffff16565b505050565b600080600281111561565d57fe5b8260200151600281111561566d57fe5b14159050919050565b600061568182614da5565b80156156a7575060028081111561569457fe5b826020015160028111156156a457fe5b10155b9050919050565b60006156b982614da5565b80156156e05750600160028111156156cd57fe5b826020015160028111156156dd57fe5b10155b9050919050565b61022060405190810160405280600015158152602001600073ffffffffffffffffffffffffffffffffffffffff1681526020016000815260200161572961586c565b815260200161573661586c565b8152602001615743615888565b8152602001615750615888565b815260200161575d6158ac565b815260200161576a6158ac565b81525090565b8154818355818111156157975781836000526020600020918201910161579691906158c8565b5b505050565b8280548282559060005260206000209081019282156157dd5760005260206000209182015b828111156157dc5782548255916001019190600101906157c1565b5b5090506157ea91906158ed565b5090565b82805482825590600052602060002090810192821561582f5760005260206000209182015b8281111561582e578254825591600101919060010190615813565b5b50905061583c91906158c8565b5090565b8154818355818111156158675781836000526020600020918201910161586691906158c8565b5b505050565b6040805190810160405280600015158152602001606081525090565b60606040519081016040528060001515815260200160608152602001606081525090565b6040805190810160405280600015158152602001606081525090565b6158ea91905b808211156158e65760008160009055506001016158ce565b5090565b90565b61592d91905b8082111561592957600081816101000a81549073ffffffffffffffffffffffffffffffffffffffff0219169055506001016158f3565b5090565b905600a165627a7a72305820ab8c2792bfac7f10c68e07c31c31f729efa7c5c0082f28587425c6b28190aa740029",
  "source": "pragma solidity ^0.4.19;\nimport \"./utils/IterableSet_Integer.sol\";\nimport \"./utils/IterableSet_Address.sol\";\nimport \"./utils/IterableSet_Pair.sol\";\nimport \"./utils/Group.sol\";\nimport \"./utils/Claim.sol\";\n\n//TODO: Give gas back on blacklist\n//TODO: Add blacklist error code\n\ncontract ShareCenter\n{\n    enum ErrorCode {\n        IS_NOT_OWNER, // 0\n        USER_ALREADY_EXISTS, // 1\n        IS_NOT_A_USER, // 2\n        IS_NOT_A_REGISTERED_SYSTEM, // 3\n        DOES_NOT_OWN_SHARE, // 4\n        DOES_NOT_HAVE_SHARE, // 5\n        SHARE_DOES_NOT_EXIST, // 6\n        GROUP_NOT_ACTIVE, // 7\n        NOT_IN_GROUP, // 8\n        NOT_OWNER_OF_GROUP, // 9\n        IN_GROUP, // 10\n        IS_NOT_PENDING_USER, // 11\n        IS_NOT_PENDING_GROUP, // 12\n        IS_NOT_PENDING_SUBGROUP, // 13\n        IS_NOT_PENDING_SHARE //14\n    }\n\n    using IterableSet_Integer for IterableSet_Integer.Data;\n    using IterableSet_Address for IterableSet_Address.Data;\n    using IterableSet_Pair for IterableSet_Pair.Data;\n    using Group for Group.Data;\n    using Claim for Claim.Data;\n\n    struct RecordShare {\n        address owner;\n        uint id;\n        uint groupID;\n        bytes32 host;\n        bytes32 path;\n        Claim.Data claim;\n    }\n\n    struct User {\n        bool active;\n        address system;\n        uint personalGroupID;\n        IterableSet_Integer.Data groups;\n        IterableSet_Integer.Data pendingUsers;\n        IterableSet_Pair.Data pendingGroups;\n        IterableSet_Pair.Data pendingSubgroups;\n        IterableSet_Address.Data whitelist;\n        IterableSet_Address.Data blacklist;\n    }\n\n    address owner;\n    mapping(address => IterableSet_Address.Data) authorizedSystems;\n    mapping(address => User) users;\n    mapping(uint => Group.Data) groups;\n    mapping(uint => RecordShare) shares;\n    uint shareCounter = 0;\n    uint groupCounter = 0;\n\n    event SystemAdded(address addr, address sender);\n    event UserCreated(address addr, address sender);\n    event UserAdded(address addr, uint groupID, address sender);\n    event GroupAdded(uint groupID, uint subgroupID, address sender);\n    event GroupRemoved(uint groupID, uint subgroupID, address sender);\n    event GroupCreated(uint id, address sender);\n    event ShareAdded(uint shareID, uint groupID, bytes32 host, bytes32 path, uint time, uint access, address sender);\n    event ShareDeleted(uint id, address sender);\n    event UserPending(uint groupID, address addr, address sender);\n    event GroupPending(uint groupID, uint subgroupID, address sender);\n    event SubgroupPending(uint groupID, uint parentGroupID, address sender);\n    event SharePending(uint groupID, uint shareID, address sender);\n    event Error(uint id);\n\n    modifier isOwner()\n    {\n        if(msg.sender != owner)\n            emit Error(uint(ErrorCode.IS_NOT_OWNER));\n        else\n            _;\n    }\n\n    modifier isUser(address addr)\n    {\n        if(!users[addr].active)\n            emit Error(uint(ErrorCode.IS_NOT_A_USER));\n        else\n            _;\n    }\n\n    modifier isActiveGroup(uint id)\n    {\n        if(groups[id].id == 0)\n            emit Error(uint(ErrorCode.GROUP_NOT_ACTIVE));\n        else\n            _;\n    }\n\n    modifier ownsGroup(address addr, uint id)\n    {\n        if(groups[id].owner != addr)\n            emit Error(uint(ErrorCode.NOT_OWNER_OF_GROUP));\n        else\n            _;\n    }\n\n    modifier isInGroup(address addr, uint id)\n    {\n        if(!groups[id].isInGroup(addr))\n            emit Error(uint(ErrorCode.NOT_IN_GROUP));\n        else\n            _;\n    }\n\n    modifier notInGroup(address addr, uint id)\n    {\n        if(groups[id].isInGroup(addr))\n            emit Error(uint(ErrorCode.IN_GROUP));\n        else\n            _;\n    }\n\n    modifier isNotUser(address addr)\n    {\n        if(users[addr].active)\n            emit Error(uint(ErrorCode.USER_ALREADY_EXISTS));\n        else\n            _;\n    }\n\n    modifier isRegisteredSystem()\n    {\n        if(!authorizedSystems[msg.sender].active)\n            emit Error(uint(ErrorCode.IS_NOT_A_REGISTERED_SYSTEM));\n        else\n            _;\n    }\n\n    modifier ownShare(uint id)\n    {\n        if(!canWrite(msg.sender, id))\n            emit Error(uint(ErrorCode.DOES_NOT_OWN_SHARE));\n        else\n            _;\n    }\n\n    modifier hasShare(uint id)\n    {\n        if(!canWrite(msg.sender, id) && !canRead(msg.sender, id))\n            emit Error(uint(ErrorCode.DOES_NOT_HAVE_SHARE));\n        else\n            _;\n    }\n\n    modifier shareExists(uint id)\n    {\n        if(shares[id].id == 0)\n            emit Error(uint(ErrorCode.SHARE_DOES_NOT_EXIST));\n        else\n            _;\n    }\n\n    modifier isPendingUser(uint groupID)\n    {\n        if(users[msg.sender].pendingUsers.contains(groupID))\n            _;\n        else\n            emit Error(uint(ErrorCode.IS_NOT_PENDING_USER));\n    }\n\n    modifier isPendingShare(uint groupID, uint shareID)\n    {\n        if (groups[groupID].pendingShares.contains(shareID))\n            _;\n        else\n            emit Error(uint(ErrorCode.IS_NOT_PENDING_SHARE));\n    }\n\n    modifier isPendingGroup(uint groupID, uint otherGroupID)\n    {\n        if(users[msg.sender].pendingGroups.contains(groupID, otherGroupID))\n            _;\n        else\n            emit Error(uint(ErrorCode.IS_NOT_PENDING_GROUP));\n    }\n\n    modifier isPendingSubgroup(uint groupID, uint otherGroupID)\n    {\n        if(users[msg.sender].pendingSubgroups.contains(groupID, otherGroupID))\n            _;\n        else\n            emit Error(uint(ErrorCode.IS_NOT_PENDING_SUBGROUP));\n    }\n\n    constructor() public\n    {\n        owner = msg.sender;\n    }\n\n    function canRead(address addr, uint shareID) public view\n    returns (bool)\n    {\n        (, uint[] memory groupIDs) = getGroupIDs(addr);\n        for(uint i = 0; i < groupIDs.length; i++)\n            if(canRead(groupIDs[i], shareID))\n                return true;\n        return false;\n    }\n\n    function canRead(uint groupID, uint shareID) internal view\n    returns (bool)\n    {\n        return groups[groupID].shares.contains(shareID) && shares[shareID].claim.canRead();\n    }\n\n    function canWrite(address addr, uint shareID) public view\n    returns (bool)\n    {\n        User memory user = users[addr];\n        for(uint i = 0; i < user.groups.list.length; i++)\n            if(canWrite(user.groups.list[i], shareID))\n                return true;\n        return false;\n    }\n\n    function canWrite(uint groupID, uint shareID) internal view\n    returns (bool)\n    {\n        return groups[groupID].shares.contains(shareID) && shares[shareID].claim.canWrite();\n    }\n\n    function isAddedSystem(address system) public view\n    returns (bool)\n    {\n        return authorizedSystems[system].active;\n    }\n\n    function addSystem(address system) public\n    isOwner\n    {\n        if(!authorizedSystems[system].active)\n        {\n            authorizedSystems[system].active = true;\n            emit SystemAdded(system, msg.sender);\n        }\n    }\n\n    function getPersonalGroupID(address addr) public\n    isUser(addr)\n    returns (bool, uint)\n    {\n        return (true, users[addr].personalGroupID);\n    }\n\n    function getUsers(uint groupID) public\n    isActiveGroup(groupID)\n    returns (bool, address[])\n    {\n        return (true, groups[groupID].getUsers());\n    }\n\n    function createUser(address addr) public\n    isRegisteredSystem\n    isNotUser(addr)\n    {\n        users[addr].active = true;\n        users[addr].system = msg.sender;\n        users[addr].whitelist.add(addr);\n        emit UserCreated(addr, msg.sender);\n        users[addr].personalGroupID = _initGroup(addr);\n    }\n\n    function whitelist(address addr) public\n    isUser(msg.sender)\n    isUser(addr)\n    {\n        users[msg.sender].whitelist.add(addr);\n    }\n\n    function blacklist(address addr) public\n    isUser(msg.sender)\n    isUser(addr)\n    {\n        users[msg.sender].blacklist.add(addr);\n    }\n\n    function getUserInvites() public view\n    isUser(msg.sender)\n    returns (bool, uint[])\n    {\n        return (true, users[msg.sender].pendingUsers.list);\n    }\n\n    function getShareInvites(uint groupID) public view\n    isActiveGroup(groupID)\n    returns (bool, uint[])\n    {\n        return (true, groups[groupID].pendingShares.list);\n    }\n\n    function getGroupInvites() public view\n    isUser(msg.sender)\n    returns (bool found, uint[] groupIDs, uint[] parentGroupIDs)\n    {\n        (groupIDs, parentGroupIDs) = users[msg.sender].pendingGroups.iterator();\n        found = true;\n    }\n\n    function getSubgroupInvites() public view\n    isUser(msg.sender)\n    returns (bool found, uint[] groupIDs, uint[] subgroupIDs)\n    {\n        (groupIDs, subgroupIDs) = users[msg.sender].pendingSubgroups.iterator();\n        found = true;\n    }\n\n    function getGroupIDs(address addr) public view\n    isUser(addr)\n    returns (bool, uint[])\n    {\n        return (true, users[msg.sender].groups.iterator());\n    }\n\n    function getParentGroups(uint groupID) public\n    isActiveGroup(groupID)\n    returns (bool, uint[])\n    {\n        return (true, groups[groupID].parentGroups.iterator());\n    }\n\n    function getSubGroups(uint groupID) public\n    isActiveGroup(groupID)\n    returns (bool, uint[])\n    {\n        return (true, groups[groupID].subGroups.iterator());\n    }\n\n    function createGroup() public\n    isUser(msg.sender)\n    returns (uint)\n    {\n        _initGroup(msg.sender);\n    }\n\n    function addSubGroup(uint groupID, uint parentGroupID) public\n    isUser(msg.sender)\n    isActiveGroup(groupID)\n    isActiveGroup(parentGroupID)\n    ownsGroup(msg.sender, groupID)\n    {\n        address addr = groups[parentGroupID].owner;\n        if(users[addr].whitelist.contains(msg.sender))\n            _addGroupToGroup(parentGroupID, groupID);\n        else if(!users[addr].blacklist.contains(msg.sender))\n        {\n            users[addr].pendingSubgroups.add(parentGroupID, groupID);\n            emit SubgroupPending(groupID, parentGroupID, msg.sender);\n        }\n    }\n\n    function addGroupToGroup(uint groupID, uint subgroupID) public\n    isUser(msg.sender)\n    isActiveGroup(groupID)\n    isActiveGroup(subgroupID)\n    ownsGroup(msg.sender, groupID)\n    {\n        address addr = groups[subgroupID].owner;\n        if(users[addr].whitelist.contains(msg.sender))\n            _addGroupToGroup(groupID, subgroupID);\n        else if(!users[addr].blacklist.contains(msg.sender))\n        {\n            users[addr].pendingGroups.add(groupID, subgroupID);\n            emit GroupPending(groupID, subgroupID, msg.sender);\n        }\n    }\n\n    function removeGroupFromGroup(uint groupID, uint subgroupID) public\n    isActiveGroup(groupID)\n    isActiveGroup(subgroupID)\n    ownsGroup(msg.sender, groupID)\n    {\n        groups[groupID].removeGroup(groups[subgroupID]);\n        emit GroupRemoved(groupID, subgroupID, msg.sender);\n    }\n\n    function acceptParentGroupAsUser(uint parentGroupID) public\n    isPendingUser(parentGroupID)\n    {\n        _addUserToGroup(parentGroupID, msg.sender);\n        users[msg.sender].pendingUsers.remove(parentGroupID);\n    }\n\n    function acceptParentGroupAsGroup(uint parentGroupID, uint groupID) public\n    isPendingGroup(parentGroupID, groupID)\n    {\n        _addGroupToGroup(parentGroupID, groupID);\n        users[msg.sender].pendingGroups.remove(parentGroupID, groupID);\n    }\n\n    function acceptSubgroup(uint subgroupID, uint groupID) public\n    isPendingSubgroup(groupID, subgroupID)\n    {\n        _addGroupToGroup(groupID, subgroupID);\n        users[msg.sender].pendingSubgroups.remove(groupID, subgroupID);\n    }\n\n    function addUserToGroup(uint groupID, address addr) public\n    isActiveGroup(groupID)\n    isUser(addr)\n    ownsGroup(msg.sender, groupID)\n    {\n        if(users[addr].whitelist.contains(msg.sender))\n            _addUserToGroup(groupID, addr);\n        else if(!users[addr].blacklist.contains(msg.sender))\n        {\n            users[addr].pendingUsers.add(groupID);\n            emit UserPending(groupID, addr, msg.sender);\n        }\n    }\n\n    function removeUserFromGroup(uint groupID, address addr) public\n    isActiveGroup(groupID)\n    ownsGroup(msg.sender, groupID)\n    isInGroup(addr, groupID)\n    {\n        groups[groupID].users.remove(addr);\n    }\n\n    function getShare(uint shareID) public view\n    shareExists(shareID)\n    returns (bool found, address owner, uint groupID, bytes32 host, bytes32 path, uint time, uint access)\n    {\n        RecordShare share = shares[shareID];\n        owner = share.owner;\n        groupID = share.groupID;\n        host = share.host;\n        path = share.path;\n        time = share.claim.time;\n        access = uint(share.claim.access);\n        found = true;\n    }\n\n    function getShares(uint groupID) public view\n    isActiveGroup(groupID)\n    returns (bool found, uint index, uint[] shareIDs, bytes32[] hosts, bytes32[] paths)\n    {\n        uint[] memory tempShares = groups[groupID].shares.list;\n        shareIDs = new uint[](tempShares.length);\n        hosts = new bytes32[](tempShares.length);\n        paths = new bytes32[](tempShares.length);\n        index = 0;\n        for(uint i = 0; i < tempShares.length; i++)\n        {\n            uint shareID = tempShares[i];\n            if(shares[shareID].claim.isValid())\n            {\n                shareIDs[index] = shareID;\n                hosts[index] = shares[shareID].host;\n                paths[index] = shares[shareID].path;\n                index++;\n            }\n        }\n        found = true;\n    }\n\n    function acceptShare(uint groupID, uint shareID) public\n    ownsGroup(msg.sender, groupID)\n    isPendingShare(groupID, shareID)\n    {\n        groups[groupID].pendingShares.remove(shareID);\n        groups[groupID].shares.add(shareID);\n\n        (, address owner,, bytes32 host, bytes32 path, uint time, uint access) = getShare(shareID);\n\n        emit ShareAdded(shareID, groupID, host, path, time, access, msg.sender);\n    }\n\n\n    function addShare(bytes32 host, bytes32 path, uint groupID, uint time, uint access) public\n    isUser(msg.sender)\n    isActiveGroup(groupID)\n    {\n        uint shareID = ++shareCounter;\n        shares[shareID].owner = msg.sender;\n        shares[shareID].id = shareID;\n        shares[shareID].groupID = groupID;\n        shares[shareID].host = host;\n        shares[shareID].path = path;\n        if(time > 0)\n            shares[shareID].claim.time = now + time;\n        shares[shareID].claim.access = Claim.getType(access);\n\n        if (groups[groupID].isInGroup(msg.sender))\n        {\n            groups[groupID].shares.add(shareID);\n            emit ShareAdded(shareID, groupID, host, path, time, access, msg.sender);\n        }\n        else\n        {\n            groups[groupID].pendingShares.add(shareID);\n            emit SharePending(groupID, shareID, msg.sender);\n        }\n    }\n\n    function deleteShare(uint shareID) public\n    isUser(msg.sender)\n    shareExists(shareID)\n    ownShare(shareID)\n    {\n        groups[shares[shareID].groupID].shares.remove(shareID);\n        delete shares[shareID];\n        emit ShareDeleted(shareID, msg.sender);\n    }\n\n    function _initGroup(address addr) internal\n    returns (uint)\n    {\n        Group.Data storage group = groups[groupCounter + 1];\n        group.id = ++groupCounter;\n        groups[group.id] = group;\n        group.owner = addr;\n        users[addr].groups.add(group.id);\n        emit GroupCreated(group.id, addr);\n        return group.id;\n    }\n\n    function _addUserToGroup(uint groupID, address addr) internal\n    {\n        users[addr].groups.add(groupID);\n        groups[groupID].users.add(addr);\n        emit UserAdded(addr, groupID, msg.sender);\n    }\n\n    function _addGroupToGroup(uint groupID, uint subgroupID) internal\n    {\n        groups[groupID].addGroup(groups[subgroupID]);\n        emit GroupAdded(groupID, subgroupID, msg.sender);\n    }\n}",
  "sourcePath": "/Users/averma/Documents/Nucleus/Private/contracts/ShareCenter.sol",
  "compiler": {
    "name": "solc",
    "version": "0.4.24+commit.e67f0147.Emscripten.clang"
  },
  "schemaVersion": "2.0.0",
  "updatedAt": "2019-02-16T15:39:34.795Z"
}