{
  "contractName": "ShareCenter",
  "abi": [
    {
      "constant": false,
      "inputs": [
        {
          "name": "id",
          "type": "uint256"
        },
        {
          "name": "addr",
          "type": "address"
        }
      ],
      "name": "authorizeRead",
      "outputs": [
        {
          "name": "",
          "type": "bool"
        }
      ],
      "payable": false,
      "stateMutability": "nonpayable",
      "type": "function"
    },
    {
      "constant": false,
      "inputs": [
        {
          "name": "id",
          "type": "uint256"
        },
        {
          "name": "addr",
          "type": "address"
        }
      ],
      "name": "revokeRead",
      "outputs": [
        {
          "name": "",
          "type": "bool"
        }
      ],
      "payable": false,
      "stateMutability": "nonpayable",
      "type": "function"
    },
    {
      "constant": false,
      "inputs": [
        {
          "name": "id",
          "type": "uint256"
        },
        {
          "name": "addr",
          "type": "address"
        }
      ],
      "name": "authorizeOwn",
      "outputs": [
        {
          "name": "",
          "type": "bool"
        }
      ],
      "payable": false,
      "stateMutability": "nonpayable",
      "type": "function"
    },
    {
      "constant": false,
      "inputs": [
        {
          "name": "addr",
          "type": "address"
        },
        {
          "name": "name",
          "type": "bytes32"
        }
      ],
      "name": "addUser",
      "outputs": [
        {
          "name": "",
          "type": "bool"
        }
      ],
      "payable": false,
      "stateMutability": "nonpayable",
      "type": "function"
    },
    {
      "constant": false,
      "inputs": [
        {
          "name": "system",
          "type": "address"
        }
      ],
      "name": "addSystem",
      "outputs": [
        {
          "name": "",
          "type": "bool"
        }
      ],
      "payable": false,
      "stateMutability": "nonpayable",
      "type": "function"
    },
    {
      "constant": false,
      "inputs": [
        {
          "name": "id",
          "type": "uint256"
        }
      ],
      "name": "deleteShare",
      "outputs": [],
      "payable": false,
      "stateMutability": "nonpayable",
      "type": "function"
    },
    {
      "constant": false,
      "inputs": [
        {
          "name": "id",
          "type": "uint256"
        },
        {
          "name": "addr",
          "type": "address"
        }
      ],
      "name": "revokeOwn",
      "outputs": [
        {
          "name": "",
          "type": "bool"
        }
      ],
      "payable": false,
      "stateMutability": "nonpayable",
      "type": "function"
    },
    {
      "constant": false,
      "inputs": [
        {
          "name": "uri",
          "type": "bytes32"
        }
      ],
      "name": "createShare",
      "outputs": [],
      "payable": false,
      "stateMutability": "nonpayable",
      "type": "function"
    },
    {
      "inputs": [],
      "payable": false,
      "stateMutability": "nonpayable",
      "type": "constructor"
    },
    {
      "anonymous": false,
      "inputs": [
        {
          "indexed": false,
          "name": "_id",
          "type": "uint256"
        },
        {
          "indexed": false,
          "name": "_uri",
          "type": "bytes32"
        }
      ],
      "name": "ShareCreated",
      "type": "event"
    },
    {
      "anonymous": false,
      "inputs": [
        {
          "indexed": false,
          "name": "id",
          "type": "uint256"
        }
      ],
      "name": "ShareDeleted",
      "type": "event"
    },
    {
      "anonymous": false,
      "inputs": [
        {
          "indexed": false,
          "name": "_id",
          "type": "uint256"
        },
        {
          "indexed": false,
          "name": "user",
          "type": "address"
        }
      ],
      "name": "OwnerAdded",
      "type": "event"
    },
    {
      "anonymous": false,
      "inputs": [
        {
          "indexed": false,
          "name": "id",
          "type": "uint256"
        },
        {
          "indexed": false,
          "name": "user",
          "type": "address"
        }
      ],
      "name": "ReaderAdded",
      "type": "event"
    },
    {
      "anonymous": false,
      "inputs": [
        {
          "indexed": false,
          "name": "id",
          "type": "uint256"
        },
        {
          "indexed": false,
          "name": "user",
          "type": "address"
        }
      ],
      "name": "OwnerRevoked",
      "type": "event"
    },
    {
      "anonymous": false,
      "inputs": [
        {
          "indexed": false,
          "name": "id",
          "type": "uint256"
        },
        {
          "indexed": false,
          "name": "user",
          "type": "address"
        }
      ],
      "name": "ReaderRevoked",
      "type": "event"
    }
  ],
  "bytecode": "0x6060604052341561000f57600080fd5b33600260006101000a81548173ffffffffffffffffffffffffffffffffffffffff021916908373ffffffffffffffffffffffffffffffffffffffff160217905550600060058190555061214d806100676000396000f30060606040526004361061008e576000357c0100000000000000000000000000000000000000000000000000000000900463ffffffff1680631f1479cf146100935780635c8f5d24146100ed5780636375968f1461014757806364f42a99146101a157806374be7592146101ff57806375a43a25146102505780638ad995e814610273578063d852e475146102cd575b600080fd5b341561009e57600080fd5b6100d3600480803590602001909190803573ffffffffffffffffffffffffffffffffffffffff169060200190919050506102f4565b604051808215151515815260200191505060405180910390f35b34156100f857600080fd5b61012d600480803590602001909190803573ffffffffffffffffffffffffffffffffffffffff169060200190919050506107db565b604051808215151515815260200191505060405180910390f35b341561015257600080fd5b610187600480803590602001909190803573ffffffffffffffffffffffffffffffffffffffff16906020019091905050610cc3565b604051808215151515815260200191505060405180910390f35b34156101ac57600080fd5b6101e5600480803573ffffffffffffffffffffffffffffffffffffffff16906020019091908035600019169060200190919050506111aa565b604051808215151515815260200191505060405180910390f35b341561020a57600080fd5b610236600480803573ffffffffffffffffffffffffffffffffffffffff1690602001909190505061132d565b604051808215151515815260200191505060405180910390f35b341561025b57600080fd5b6102716004808035906020019091905050611457565b005b341561027e57600080fd5b6102b3600480803590602001909190803573ffffffffffffffffffffffffffffffffffffffff169060200190919050506118b7565b604051808215151515815260200191505060405180910390f35b34156102d857600080fd5b6102f2600480803560001916906020019091905050611d9f565b005b600080336000600102600360008373ffffffffffffffffffffffffffffffffffffffff1673ffffffffffffffffffffffffffffffffffffffff16815260200190815260200160002060000154600019161415151561035157600080fd5b836000600102600360008373ffffffffffffffffffffffffffffffffffffffff1673ffffffffffffffffffffffffffffffffffffffff1681526020019081526020016000206000015460001916141515156103ab57600080fd5b856000600102600460008381526020019081526020016000206001015460001916141515156103d957600080fd5b86600360003373ffffffffffffffffffffffffffffffffffffffff1673ffffffffffffffffffffffffffffffffffffffff16815260200190815260200160002060010173__IterableSet_Integer___________________6305eb11509091836000604051602001526040518363ffffffff167c0100000000000000000000000000000000000000000000000000000000028152600401808381526020018281526020019250505060206040518083038186803b151561049857600080fd5b6102c65a03f415156104a957600080fd5b5050506040518051905015156104be57600080fd5b600360008873ffffffffffffffffffffffffffffffffffffffff1673ffffffffffffffffffffffffffffffffffffffff16815260200190815260200160002060030173__IterableSet_Integer___________________6305eb115090918a6000604051602001526040518363ffffffff167c0100000000000000000000000000000000000000000000000000000000028152600401808381526020018281526020019250505060206040518083038186803b151561057c57600080fd5b6102c65a03f4151561058d57600080fd5b50505060405180519050156105a557600095506107d0565b6004600089815260200190815260200160002094508460040173__IterableSet_Address___________________63c1dea9309091896000604051602001526040518363ffffffff167c0100000000000000000000000000000000000000000000000000000000028152600401808381526020018273ffffffffffffffffffffffffffffffffffffffff1673ffffffffffffffffffffffffffffffffffffffff1681526020019250505060206040518083038186803b151561066657600080fd5b6102c65a03f4151561067757600080fd5b5050506040518051905050600360008873ffffffffffffffffffffffffffffffffffffffff1673ffffffffffffffffffffffffffffffffffffffff16815260200190815260200160002060030173__IterableSet_Integer___________________633b6de707909187600001546000604051602001526040518363ffffffff167c0100000000000000000000000000000000000000000000000000000000028152600401808381526020018281526020019250505060206040518083038186803b151561074457600080fd5b6102c65a03f4151561075557600080fd5b50505060405180519050507f6cf15e5b4d189ab30ecd758252a4fb12e93e36bcd02be623ef4cf7d0b28801688888604051808381526020018273ffffffffffffffffffffffffffffffffffffffff1673ffffffffffffffffffffffffffffffffffffffff1681526020019250505060405180910390a1600195505b505050505092915050565b600080336000600102600360008373ffffffffffffffffffffffffffffffffffffffff1673ffffffffffffffffffffffffffffffffffffffff16815260200190815260200160002060000154600019161415151561083857600080fd5b836000600102600360008373ffffffffffffffffffffffffffffffffffffffff1673ffffffffffffffffffffffffffffffffffffffff16815260200190815260200160002060000154600019161415151561089257600080fd5b856000600102600460008381526020019081526020016000206001015460001916141515156108c057600080fd5b86600360003373ffffffffffffffffffffffffffffffffffffffff1673ffffffffffffffffffffffffffffffffffffffff16815260200190815260200160002060010173__IterableSet_Integer___________________6305eb11509091836000604051602001526040518363ffffffff167c0100000000000000000000000000000000000000000000000000000000028152600401808381526020018281526020019250505060206040518083038186803b151561097f57600080fd5b6102c65a03f4151561099057600080fd5b5050506040518051905015156109a557600080fd5b600360008873ffffffffffffffffffffffffffffffffffffffff1673ffffffffffffffffffffffffffffffffffffffff16815260200190815260200160002060030173__IterableSet_Integer___________________6305eb115090918a6000604051602001526040518363ffffffff167c0100000000000000000000000000000000000000000000000000000000028152600401808381526020018281526020019250505060206040518083038186803b1515610a6357600080fd5b6102c65a03f41515610a7457600080fd5b505050604051805190501515610a8d5760009550610cb8565b6004600089815260200190815260200160002094508460040173__IterableSet_Address___________________6331ac78b79091896000604051602001526040518363ffffffff167c0100000000000000000000000000000000000000000000000000000000028152600401808381526020018273ffffffffffffffffffffffffffffffffffffffff1673ffffffffffffffffffffffffffffffffffffffff1681526020019250505060206040518083038186803b1515610b4e57600080fd5b6102c65a03f41515610b5f57600080fd5b5050506040518051905050600360008873ffffffffffffffffffffffffffffffffffffffff1673ffffffffffffffffffffffffffffffffffffffff16815260200190815260200160002060030173__IterableSet_Integer___________________63e627f67a909187600001546000604051602001526040518363ffffffff167c0100000000000000000000000000000000000000000000000000000000028152600401808381526020018281526020019250505060206040518083038186803b1515610c2c57600080fd5b6102c65a03f41515610c3d57600080fd5b50505060405180519050507f3b51630b9ba846a3eb94d144bba859e6d62ae707f87d3b443368eb69328154248888604051808381526020018273ffffffffffffffffffffffffffffffffffffffff1673ffffffffffffffffffffffffffffffffffffffff1681526020019250505060405180910390a1600195505b505050505092915050565b600080336000600102600360008373ffffffffffffffffffffffffffffffffffffffff1673ffffffffffffffffffffffffffffffffffffffff168152602001908152602001600020600001546000191614151515610d2057600080fd5b836000600102600360008373ffffffffffffffffffffffffffffffffffffffff1673ffffffffffffffffffffffffffffffffffffffff168152602001908152602001600020600001546000191614151515610d7a57600080fd5b85600060010260046000838152602001908152602001600020600101546000191614151515610da857600080fd5b86600360003373ffffffffffffffffffffffffffffffffffffffff1673ffffffffffffffffffffffffffffffffffffffff16815260200190815260200160002060010173__IterableSet_Integer___________________6305eb11509091836000604051602001526040518363ffffffff167c0100000000000000000000000000000000000000000000000000000000028152600401808381526020018281526020019250505060206040518083038186803b1515610e6757600080fd5b6102c65a03f41515610e7857600080fd5b505050604051805190501515610e8d57600080fd5b600360008873ffffffffffffffffffffffffffffffffffffffff1673ffffffffffffffffffffffffffffffffffffffff16815260200190815260200160002060010173__IterableSet_Integer___________________6305eb115090918a6000604051602001526040518363ffffffff167c0100000000000000000000000000000000000000000000000000000000028152600401808381526020018281526020019250505060206040518083038186803b1515610f4b57600080fd5b6102c65a03f41515610f5c57600080fd5b5050506040518051905015610f74576000955061119f565b6004600089815260200190815260200160002094508460020173__IterableSet_Address___________________63c1dea9309091896000604051602001526040518363ffffffff167c0100000000000000000000000000000000000000000000000000000000028152600401808381526020018273ffffffffffffffffffffffffffffffffffffffff1673ffffffffffffffffffffffffffffffffffffffff1681526020019250505060206040518083038186803b151561103557600080fd5b6102c65a03f4151561104657600080fd5b5050506040518051905050600360008873ffffffffffffffffffffffffffffffffffffffff1673ffffffffffffffffffffffffffffffffffffffff16815260200190815260200160002060010173__IterableSet_Integer___________________633b6de707909187600001546000604051602001526040518363ffffffff167c0100000000000000000000000000000000000000000000000000000000028152600401808381526020018281526020019250505060206040518083038186803b151561111357600080fd5b6102c65a03f4151561112457600080fd5b50505060405180519050507fab7a51f59a55e3b65bbabf99457f8955ff12366d20e368988c35d2eab9bd8df98888604051808381526020018273ffffffffffffffffffffffffffffffffffffffff1673ffffffffffffffffffffffffffffffffffffffff1681526020019250505060405180910390a1600195505b505050505092915050565b60008073__Set___________________________________63fe6949e39091336000604051602001526040518363ffffffff167c0100000000000000000000000000000000000000000000000000000000028152600401808381526020018273ffffffffffffffffffffffffffffffffffffffff1673ffffffffffffffffffffffffffffffffffffffff1681526020019250505060206040518083038186803b151561125557600080fd5b6102c65a03f4151561126657600080fd5b50505060405180519050151561127b57600080fd5b6000600102600360008573ffffffffffffffffffffffffffffffffffffffff1673ffffffffffffffffffffffffffffffffffffffff16815260200190815260200160002060000154600019161415156112d75760009050611327565b81600360008573ffffffffffffffffffffffffffffffffffffffff1673ffffffffffffffffffffffffffffffffffffffff1681526020019081526020016000206000018160001916905550600190505b92915050565b6000600260009054906101000a900473ffffffffffffffffffffffffffffffffffffffff1673ffffffffffffffffffffffffffffffffffffffff163373ffffffffffffffffffffffffffffffffffffffff1614151561138b57600080fd5b600073__Set___________________________________639dc159aa9091846000604051602001526040518363ffffffff167c0100000000000000000000000000000000000000000000000000000000028152600401808381526020018273ffffffffffffffffffffffffffffffffffffffff1673ffffffffffffffffffffffffffffffffffffffff1681526020019250505060206040518083038186803b151561143557600080fd5b6102c65a03f4151561144657600080fd5b505050604051805190509050919050565b600080600080336000600102600360008373ffffffffffffffffffffffffffffffffffffffff1673ffffffffffffffffffffffffffffffffffffffff1681526020019081526020016000206000015460001916141515156114b757600080fd5b856000600102600460008381526020019081526020016000206001015460001916141515156114e557600080fd5b86600360003373ffffffffffffffffffffffffffffffffffffffff1673ffffffffffffffffffffffffffffffffffffffff16815260200190815260200160002060010173__IterableSet_Integer___________________6305eb11509091836000604051602001526040518363ffffffff167c0100000000000000000000000000000000000000000000000000000000028152600401808381526020018281526020019250505060206040518083038186803b15156115a457600080fd5b6102c65a03f415156115b557600080fd5b5050506040518051905015156115ca57600080fd5b60046000898152602001908152602001600020965086600201600101805490509350600095505b8386101561172257866002016001018681548110151561160d57fe5b906000526020600020900160009054906101000a900473ffffffffffffffffffffffffffffffffffffffff169450600360008673ffffffffffffffffffffffffffffffffffffffff1673ffffffffffffffffffffffffffffffffffffffff16815260200190815260200160002060010173__IterableSet_Integer___________________63e627f67a90918a6000604051602001526040518363ffffffff167c0100000000000000000000000000000000000000000000000000000000028152600401808381526020018281526020019250505060206040518083038186803b15156116f957600080fd5b6102c65a03f4151561170a57600080fd5b505050604051805190505085806001019650506115f1565b86600401600101805490509350600095505b8386101561186557866004016001018681548110151561175057fe5b906000526020600020900160009054906101000a900473ffffffffffffffffffffffffffffffffffffffff169450600360008673ffffffffffffffffffffffffffffffffffffffff1673ffffffffffffffffffffffffffffffffffffffff16815260200190815260200160002060030173__IterableSet_Integer___________________63e627f67a90918a6000604051602001526040518363ffffffff167c0100000000000000000000000000000000000000000000000000000000028152600401808381526020018281526020019250505060206040518083038186803b151561183c57600080fd5b6102c65a03f4151561184d57600080fd5b50505060405180519050508580600101965050611734565b7f87ce32317bebfcf97e3980d9d4f263c3060978653f9f65992e18eae9643077c5886040518082815260200191505060405180910390a160006001028760010181600019169055505050505050505050565b600080336000600102600360008373ffffffffffffffffffffffffffffffffffffffff1673ffffffffffffffffffffffffffffffffffffffff16815260200190815260200160002060000154600019161415151561191457600080fd5b836000600102600360008373ffffffffffffffffffffffffffffffffffffffff1673ffffffffffffffffffffffffffffffffffffffff16815260200190815260200160002060000154600019161415151561196e57600080fd5b8560006001026004600083815260200190815260200160002060010154600019161415151561199c57600080fd5b86600360003373ffffffffffffffffffffffffffffffffffffffff1673ffffffffffffffffffffffffffffffffffffffff16815260200190815260200160002060010173__IterableSet_Integer___________________6305eb11509091836000604051602001526040518363ffffffff167c0100000000000000000000000000000000000000000000000000000000028152600401808381526020018281526020019250505060206040518083038186803b1515611a5b57600080fd5b6102c65a03f41515611a6c57600080fd5b505050604051805190501515611a8157600080fd5b600360008873ffffffffffffffffffffffffffffffffffffffff1673ffffffffffffffffffffffffffffffffffffffff16815260200190815260200160002060010173__IterableSet_Integer___________________6305eb115090918a6000604051602001526040518363ffffffff167c0100000000000000000000000000000000000000000000000000000000028152600401808381526020018281526020019250505060206040518083038186803b1515611b3f57600080fd5b6102c65a03f41515611b5057600080fd5b505050604051805190501515611b695760009550611d94565b6004600089815260200190815260200160002094508460020173__IterableSet_Address___________________6331ac78b79091896000604051602001526040518363ffffffff167c0100000000000000000000000000000000000000000000000000000000028152600401808381526020018273ffffffffffffffffffffffffffffffffffffffff1673ffffffffffffffffffffffffffffffffffffffff1681526020019250505060206040518083038186803b1515611c2a57600080fd5b6102c65a03f41515611c3b57600080fd5b5050506040518051905050600360008873ffffffffffffffffffffffffffffffffffffffff1673ffffffffffffffffffffffffffffffffffffffff16815260200190815260200160002060010173__IterableSet_Integer___________________63e627f67a909187600001546000604051602001526040518363ffffffff167c0100000000000000000000000000000000000000000000000000000000028152600401808381526020018281526020019250505060206040518083038186803b1515611d0857600080fd5b6102c65a03f41515611d1957600080fd5b50505060405180519050507f93137ab9e77b94785b9eb426e1b99b32940a246bc1ba84bf8492af330fa8deb48888604051808381526020018273ffffffffffffffffffffffffffffffffffffffff1673ffffffffffffffffffffffffffffffffffffffff1681526020019250505060405180910390a1600195505b505050505092915050565b6000336000600102600360008373ffffffffffffffffffffffffffffffffffffffff1673ffffffffffffffffffffffffffffffffffffffff168152602001908152602001600020600001546000191614151515611dfb57600080fd5b8282600101816000191690555060055482600001819055508160020173__IterableSet_Address___________________63c1dea9309091336000604051602001526040518363ffffffff167c0100000000000000000000000000000000000000000000000000000000028152600401808381526020018273ffffffffffffffffffffffffffffffffffffffff1673ffffffffffffffffffffffffffffffffffffffff1681526020019250505060206040518083038186803b1515611ebf57600080fd5b6102c65a03f41515611ed057600080fd5b505050604051805190505081600460006005548152602001908152602001600020600082015481600001556001820154816001019060001916905560028201816002016001820181600101908054611f2992919061208c565b50505060048201816004016001820181600101908054611f4a92919061208c565b505050905050600360003373ffffffffffffffffffffffffffffffffffffffff1673ffffffffffffffffffffffffffffffffffffffff16815260200190815260200160002060010173__IterableSet_Integer___________________633b6de70790916005546000604051602001526040518363ffffffff167c0100000000000000000000000000000000000000000000000000000000028152600401808381526020018281526020019250505060206040518083038186803b151561201057600080fd5b6102c65a03f4151561202157600080fd5b50505060405180519050507faa046b98d3670c5897823595eab21ba3ca6f42d0d85da3dd9955fecee1c8158a600554846040518083815260200182600019166000191681526020019250505060405180910390a1600560008154809291906001019190505550505050565b8280548282559060005260206000209081019282156120cd5760005260206000209182015b828111156120cc5782548255916001019190600101906120b1565b5b5090506120da91906120de565b5090565b61211e91905b8082111561211a57600081816101000a81549073ffffffffffffffffffffffffffffffffffffffff0219169055506001016120e4565b5090565b905600a165627a7a72305820b0119a175b69982511532529394785faddb0a6a7754fed801d5b7bd5dfc6c4d40029",
  "source": "pragma solidity ^0.4.18;\nimport \"./utils/Set.sol\";\nimport \"./utils/IterableSet_Integer.sol\";\nimport \"./utils/IterableSet_Address.sol\";\n\ncontract ShareCenter\n{\n    using IterableSet_Integer for IterableSet_Integer.Data;\n    using IterableSet_Address for IterableSet_Address.Data;\n    using Set for Set.Data;\n\n    struct ImageShare {\n        uint id;\n        bytes32 uri;\n        IterableSet_Address.Data authorizedOwn;\n        IterableSet_Address.Data authorizedRead;\n    }\n\n    struct User {\n        bytes32 name;\n        IterableSet_Integer.Data authorizedOwn;\n        IterableSet_Integer.Data authorizedRead;\n    }\n\n    Set.Data authorizedSystems;\n    address owner;\n    mapping(address => User) users;\n    mapping(uint => ImageShare) shares;\n    uint idCounter;\n\n    event ShareCreated(uint _id, bytes32 _uri);\n    event ShareDeleted(uint id);\n    event OwnerAdded(uint _id, address user);\n    event ReaderAdded(uint id, address user);\n    event OwnerRevoked(uint id, address user);\n    event ReaderRevoked(uint id, address user);\n\n    modifier isOwner()\n    {\n        require(msg.sender == owner);\n        _;\n    }\n\n    modifier isUser(address addr)\n    {\n        require(users[addr].name != 0x0);\n        _;\n    }\n\n    modifier isRegisteredSystem()\n    {\n        require(authorizedSystems.contains(msg.sender));\n        _;\n    }\n\n    modifier ownShare(uint id)\n    {\n        require(users[msg.sender].authorizedOwn.contains(id));\n        _;\n    }\n\n    modifier shareExists(uint id)\n    {\n        require(shares[id].uri != 0x0);\n        _;\n    }\n\n    function ShareCenter() public\n    {\n        owner = msg.sender;\n        idCounter = 0;\n    }\n\n    function addSystem(address system) public isOwner returns (bool)\n    {\n        return authorizedSystems.add(system);\n    }\n\n    function addUser(address addr, bytes32 name) public isRegisteredSystem returns (bool)\n    {\n        if(users[addr].name != 0x0)\n            return false;\n        users[addr].name = name;\n        return true;\n    }\n\n    function createShare(bytes32 uri) public isUser(msg.sender)\n    {\n        ImageShare storage share;\n        share.uri = uri;\n        share.id = idCounter;\n        share.authorizedOwn.add(msg.sender);\n        shares[idCounter] = share;\n        users[msg.sender].authorizedOwn.add(idCounter);\n        ShareCreated(idCounter, uri);\n        idCounter++;\n    }\n\n    function deleteShare(uint id) public isUser(msg.sender) shareExists(id) ownShare(id)\n    {\n        ImageShare storage share = shares[id];\n        uint i;\n        address addr;\n        uint size = share.authorizedOwn.list.length;\n        for(i = 0; i < size; i++)\n        {\n            addr = share.authorizedOwn.list[i];\n            users[addr].authorizedOwn.remove(id);\n        }\n        size = share.authorizedRead.list.length;\n        for(i = 0; i < size; i++)\n        {\n            addr = share.authorizedRead.list[i];\n            users[addr].authorizedRead.remove(id);\n        }\n        ShareDeleted(id);\n        share.uri = 0x0;\n    }\n\n    function authorizeOwn(uint id, address addr) public isUser(msg.sender) isUser(addr) shareExists(id) ownShare(id) returns (bool)\n    {\n        if(users[addr].authorizedOwn.contains(id))\n            return false;\n        ImageShare storage share = shares[id];\n        share.authorizedOwn.add(addr);\n        users[addr].authorizedOwn.add(share.id);\n        OwnerAdded(id, addr);\n        return true;\n    }\n\n    function authorizeRead(uint id, address addr) public isUser(msg.sender) isUser(addr) shareExists(id) ownShare(id) returns (bool)\n    {\n        if(users[addr].authorizedRead.contains(id))\n            return false;\n        ImageShare storage share = shares[id];\n        share.authorizedRead.add(addr);\n        users[addr].authorizedRead.add(share.id);\n        ReaderAdded(id, addr);\n        return true;\n    }\n\n    function revokeOwn(uint id, address addr) public isUser(msg.sender) isUser(addr) shareExists(id) ownShare(id) returns (bool)\n    {\n        if(!users[addr].authorizedOwn.contains(id))\n            return false;\n        ImageShare storage share = shares[id];\n        share.authorizedOwn.remove(addr);\n        users[addr].authorizedOwn.remove(share.id);\n        OwnerRevoked(id, addr);\n        return true;\n    }\n\n    function revokeRead(uint id, address addr) public isUser(msg.sender) isUser(addr) shareExists(id) ownShare(id) returns (bool)\n    {\n        if(!users[addr].authorizedRead.contains(id))\n            return false;\n        ImageShare storage share = shares[id];\n        share.authorizedRead.remove(addr);\n        users[addr].authorizedRead.remove(share.id);\n        ReaderRevoked(id, addr);\n        return true;\n    }\n}\n",
  "sourcePath": "/Users/averma/Documents/Imageshare/BlockchainExperiments/contracts/ShareCenter.sol",
  "compiler": {
    "name": "solc",
    "version": "0.4.18+commit.9cf6e910.Emscripten.clang"
  },
  "schemaVersion": "1.0.1",
  "updatedAt": "2018-01-31T05:28:15.010Z"
}