{
  "contractName": "ShareCenter",
  "abi": [
    {
      "constant": false,
      "inputs": [
        {
          "name": "id",
          "type": "uint256"
        },
        {
          "name": "addr",
          "type": "address"
        }
      ],
      "name": "authorizeRead",
      "outputs": [
        {
          "name": "",
          "type": "bool"
        }
      ],
      "payable": false,
      "stateMutability": "nonpayable",
      "type": "function"
    },
    {
      "constant": false,
      "inputs": [
        {
          "name": "id",
          "type": "uint256"
        },
        {
          "name": "addr",
          "type": "address"
        }
      ],
      "name": "revokeRead",
      "outputs": [
        {
          "name": "",
          "type": "bool"
        }
      ],
      "payable": false,
      "stateMutability": "nonpayable",
      "type": "function"
    },
    {
      "constant": false,
      "inputs": [
        {
          "name": "id",
          "type": "uint256"
        },
        {
          "name": "addr",
          "type": "address"
        }
      ],
      "name": "authorizeOwn",
      "outputs": [
        {
          "name": "",
          "type": "bool"
        }
      ],
      "payable": false,
      "stateMutability": "nonpayable",
      "type": "function"
    },
    {
      "constant": false,
      "inputs": [
        {
          "name": "addr",
          "type": "address"
        },
        {
          "name": "name",
          "type": "bytes32"
        }
      ],
      "name": "addUser",
      "outputs": [
        {
          "name": "",
          "type": "bool"
        }
      ],
      "payable": false,
      "stateMutability": "nonpayable",
      "type": "function"
    },
    {
      "constant": false,
      "inputs": [
        {
          "name": "system",
          "type": "address"
        }
      ],
      "name": "addSystem",
      "outputs": [],
      "payable": false,
      "stateMutability": "nonpayable",
      "type": "function"
    },
    {
      "constant": false,
      "inputs": [
        {
          "name": "id",
          "type": "uint256"
        }
      ],
      "name": "deleteShare",
      "outputs": [],
      "payable": false,
      "stateMutability": "nonpayable",
      "type": "function"
    },
    {
      "constant": false,
      "inputs": [
        {
          "name": "id",
          "type": "uint256"
        },
        {
          "name": "addr",
          "type": "address"
        }
      ],
      "name": "revokeOwn",
      "outputs": [
        {
          "name": "",
          "type": "bool"
        }
      ],
      "payable": false,
      "stateMutability": "nonpayable",
      "type": "function"
    },
    {
      "constant": false,
      "inputs": [
        {
          "name": "uri",
          "type": "bytes32"
        }
      ],
      "name": "createShare",
      "outputs": [],
      "payable": false,
      "stateMutability": "nonpayable",
      "type": "function"
    },
    {
      "inputs": [],
      "payable": false,
      "stateMutability": "nonpayable",
      "type": "constructor"
    },
    {
      "anonymous": false,
      "inputs": [
        {
          "indexed": false,
          "name": "_id",
          "type": "uint256"
        },
        {
          "indexed": false,
          "name": "_uri",
          "type": "bytes32"
        }
      ],
      "name": "ShareCreated",
      "type": "event"
    },
    {
      "anonymous": false,
      "inputs": [
        {
          "indexed": false,
          "name": "id",
          "type": "uint256"
        }
      ],
      "name": "ShareDeleted",
      "type": "event"
    },
    {
      "anonymous": false,
      "inputs": [
        {
          "indexed": false,
          "name": "_id",
          "type": "uint256"
        },
        {
          "indexed": false,
          "name": "user",
          "type": "address"
        }
      ],
      "name": "OwnerAdded",
      "type": "event"
    },
    {
      "anonymous": false,
      "inputs": [
        {
          "indexed": false,
          "name": "id",
          "type": "uint256"
        },
        {
          "indexed": false,
          "name": "user",
          "type": "address"
        }
      ],
      "name": "ReaderAdded",
      "type": "event"
    },
    {
      "anonymous": false,
      "inputs": [
        {
          "indexed": false,
          "name": "id",
          "type": "uint256"
        },
        {
          "indexed": false,
          "name": "user",
          "type": "address"
        }
      ],
      "name": "OwnerRevoked",
      "type": "event"
    },
    {
      "anonymous": false,
      "inputs": [
        {
          "indexed": false,
          "name": "id",
          "type": "uint256"
        },
        {
          "indexed": false,
          "name": "user",
          "type": "address"
        }
      ],
      "name": "ReaderRevoked",
      "type": "event"
    }
  ],
  "bytecode": "0x6060604052341561000f57600080fd5b33600260006101000a81548173ffffffffffffffffffffffffffffffffffffffff021916908373ffffffffffffffffffffffffffffffffffffffff16021790555060006005819055506122d0806100676000396000f30060606040526004361061008e576000357c0100000000000000000000000000000000000000000000000000000000900463ffffffff1680631f1479cf146100935780635c8f5d24146100ed5780636375968f1461014757806364f42a99146101a157806374be7592146101ff57806375a43a25146102385780638ad995e81461025b578063d852e475146102b5575b600080fd5b341561009e57600080fd5b6100d3600480803590602001909190803573ffffffffffffffffffffffffffffffffffffffff169060200190919050506102dc565b604051808215151515815260200191505060405180910390f35b34156100f857600080fd5b61012d600480803590602001909190803573ffffffffffffffffffffffffffffffffffffffff169060200190919050506107c3565b604051808215151515815260200191505060405180910390f35b341561015257600080fd5b610187600480803590602001909190803573ffffffffffffffffffffffffffffffffffffffff16906020019091905050610cab565b604051808215151515815260200191505060405180910390f35b34156101ac57600080fd5b6101e5600480803573ffffffffffffffffffffffffffffffffffffffff1690602001909190803560001916906020019091905050611192565b604051808215151515815260200191505060405180910390f35b341561020a57600080fd5b610236600480803573ffffffffffffffffffffffffffffffffffffffff16906020019091905050611315565b005b341561024357600080fd5b610259600480803590602001909190505061143a565b005b341561026657600080fd5b61029b600480803590602001909190803573ffffffffffffffffffffffffffffffffffffffff169060200190919050506119d4565b604051808215151515815260200191505060405180910390f35b34156102c057600080fd5b6102da600480803560001916906020019091905050611ebc565b005b600080336000600102600360008373ffffffffffffffffffffffffffffffffffffffff1673ffffffffffffffffffffffffffffffffffffffff16815260200190815260200160002060000154600019161415151561033957600080fd5b836000600102600360008373ffffffffffffffffffffffffffffffffffffffff1673ffffffffffffffffffffffffffffffffffffffff16815260200190815260200160002060000154600019161415151561039357600080fd5b856000600102600460008381526020019081526020016000206001015460001916141515156103c157600080fd5b86600360003373ffffffffffffffffffffffffffffffffffffffff1673ffffffffffffffffffffffffffffffffffffffff16815260200190815260200160002060010173__IterableSet_Integer___________________6305eb11509091836000604051602001526040518363ffffffff167c0100000000000000000000000000000000000000000000000000000000028152600401808381526020018281526020019250505060206040518083038186803b151561048057600080fd5b6102c65a03f4151561049157600080fd5b5050506040518051905015156104a657600080fd5b600360008873ffffffffffffffffffffffffffffffffffffffff1673ffffffffffffffffffffffffffffffffffffffff16815260200190815260200160002060030173__IterableSet_Integer___________________6305eb115090918a6000604051602001526040518363ffffffff167c0100000000000000000000000000000000000000000000000000000000028152600401808381526020018281526020019250505060206040518083038186803b151561056457600080fd5b6102c65a03f4151561057557600080fd5b505050604051805190501561058d57600095506107b8565b6004600089815260200190815260200160002094508460040173__IterableSet_Address___________________63c1dea9309091896000604051602001526040518363ffffffff167c0100000000000000000000000000000000000000000000000000000000028152600401808381526020018273ffffffffffffffffffffffffffffffffffffffff1673ffffffffffffffffffffffffffffffffffffffff1681526020019250505060206040518083038186803b151561064e57600080fd5b6102c65a03f4151561065f57600080fd5b5050506040518051905050600360008873ffffffffffffffffffffffffffffffffffffffff1673ffffffffffffffffffffffffffffffffffffffff16815260200190815260200160002060030173__IterableSet_Integer___________________633b6de707909187600001546000604051602001526040518363ffffffff167c0100000000000000000000000000000000000000000000000000000000028152600401808381526020018281526020019250505060206040518083038186803b151561072c57600080fd5b6102c65a03f4151561073d57600080fd5b50505060405180519050507f6cf15e5b4d189ab30ecd758252a4fb12e93e36bcd02be623ef4cf7d0b28801688888604051808381526020018273ffffffffffffffffffffffffffffffffffffffff1673ffffffffffffffffffffffffffffffffffffffff1681526020019250505060405180910390a1600195505b505050505092915050565b600080336000600102600360008373ffffffffffffffffffffffffffffffffffffffff1673ffffffffffffffffffffffffffffffffffffffff16815260200190815260200160002060000154600019161415151561082057600080fd5b836000600102600360008373ffffffffffffffffffffffffffffffffffffffff1673ffffffffffffffffffffffffffffffffffffffff16815260200190815260200160002060000154600019161415151561087a57600080fd5b856000600102600460008381526020019081526020016000206001015460001916141515156108a857600080fd5b86600360003373ffffffffffffffffffffffffffffffffffffffff1673ffffffffffffffffffffffffffffffffffffffff16815260200190815260200160002060010173__IterableSet_Integer___________________6305eb11509091836000604051602001526040518363ffffffff167c0100000000000000000000000000000000000000000000000000000000028152600401808381526020018281526020019250505060206040518083038186803b151561096757600080fd5b6102c65a03f4151561097857600080fd5b50505060405180519050151561098d57600080fd5b600360008873ffffffffffffffffffffffffffffffffffffffff1673ffffffffffffffffffffffffffffffffffffffff16815260200190815260200160002060030173__IterableSet_Integer___________________6305eb115090918a6000604051602001526040518363ffffffff167c0100000000000000000000000000000000000000000000000000000000028152600401808381526020018281526020019250505060206040518083038186803b1515610a4b57600080fd5b6102c65a03f41515610a5c57600080fd5b505050604051805190501515610a755760009550610ca0565b6004600089815260200190815260200160002094508460040173__IterableSet_Address___________________6331ac78b79091896000604051602001526040518363ffffffff167c0100000000000000000000000000000000000000000000000000000000028152600401808381526020018273ffffffffffffffffffffffffffffffffffffffff1673ffffffffffffffffffffffffffffffffffffffff1681526020019250505060206040518083038186803b1515610b3657600080fd5b6102c65a03f41515610b4757600080fd5b5050506040518051905050600360008873ffffffffffffffffffffffffffffffffffffffff1673ffffffffffffffffffffffffffffffffffffffff16815260200190815260200160002060030173__IterableSet_Integer___________________63e627f67a909187600001546000604051602001526040518363ffffffff167c0100000000000000000000000000000000000000000000000000000000028152600401808381526020018281526020019250505060206040518083038186803b1515610c1457600080fd5b6102c65a03f41515610c2557600080fd5b50505060405180519050507f3b51630b9ba846a3eb94d144bba859e6d62ae707f87d3b443368eb69328154248888604051808381526020018273ffffffffffffffffffffffffffffffffffffffff1673ffffffffffffffffffffffffffffffffffffffff1681526020019250505060405180910390a1600195505b505050505092915050565b600080336000600102600360008373ffffffffffffffffffffffffffffffffffffffff1673ffffffffffffffffffffffffffffffffffffffff168152602001908152602001600020600001546000191614151515610d0857600080fd5b836000600102600360008373ffffffffffffffffffffffffffffffffffffffff1673ffffffffffffffffffffffffffffffffffffffff168152602001908152602001600020600001546000191614151515610d6257600080fd5b85600060010260046000838152602001908152602001600020600101546000191614151515610d9057600080fd5b86600360003373ffffffffffffffffffffffffffffffffffffffff1673ffffffffffffffffffffffffffffffffffffffff16815260200190815260200160002060010173__IterableSet_Integer___________________6305eb11509091836000604051602001526040518363ffffffff167c0100000000000000000000000000000000000000000000000000000000028152600401808381526020018281526020019250505060206040518083038186803b1515610e4f57600080fd5b6102c65a03f41515610e6057600080fd5b505050604051805190501515610e7557600080fd5b600360008873ffffffffffffffffffffffffffffffffffffffff1673ffffffffffffffffffffffffffffffffffffffff16815260200190815260200160002060010173__IterableSet_Integer___________________6305eb115090918a6000604051602001526040518363ffffffff167c0100000000000000000000000000000000000000000000000000000000028152600401808381526020018281526020019250505060206040518083038186803b1515610f3357600080fd5b6102c65a03f41515610f4457600080fd5b5050506040518051905015610f5c5760009550611187565b6004600089815260200190815260200160002094508460020173__IterableSet_Address___________________63c1dea9309091896000604051602001526040518363ffffffff167c0100000000000000000000000000000000000000000000000000000000028152600401808381526020018273ffffffffffffffffffffffffffffffffffffffff1673ffffffffffffffffffffffffffffffffffffffff1681526020019250505060206040518083038186803b151561101d57600080fd5b6102c65a03f4151561102e57600080fd5b5050506040518051905050600360008873ffffffffffffffffffffffffffffffffffffffff1673ffffffffffffffffffffffffffffffffffffffff16815260200190815260200160002060010173__IterableSet_Integer___________________633b6de707909187600001546000604051602001526040518363ffffffff167c0100000000000000000000000000000000000000000000000000000000028152600401808381526020018281526020019250505060206040518083038186803b15156110fb57600080fd5b6102c65a03f4151561110c57600080fd5b50505060405180519050507fab7a51f59a55e3b65bbabf99457f8955ff12366d20e368988c35d2eab9bd8df98888604051808381526020018273ffffffffffffffffffffffffffffffffffffffff1673ffffffffffffffffffffffffffffffffffffffff1681526020019250505060405180910390a1600195505b505050505092915050565b60008073__Set___________________________________63fe6949e39091336000604051602001526040518363ffffffff167c0100000000000000000000000000000000000000000000000000000000028152600401808381526020018273ffffffffffffffffffffffffffffffffffffffff1673ffffffffffffffffffffffffffffffffffffffff1681526020019250505060206040518083038186803b151561123d57600080fd5b6102c65a03f4151561124e57600080fd5b50505060405180519050151561126357600080fd5b6000600102600360008573ffffffffffffffffffffffffffffffffffffffff1673ffffffffffffffffffffffffffffffffffffffff16815260200190815260200160002060000154600019161415156112bf576000905061130f565b81600360008573ffffffffffffffffffffffffffffffffffffffff1673ffffffffffffffffffffffffffffffffffffffff1681526020019081526020016000206000018160001916905550600190505b92915050565b600260009054906101000a900473ffffffffffffffffffffffffffffffffffffffff1673ffffffffffffffffffffffffffffffffffffffff163373ffffffffffffffffffffffffffffffffffffffff1614151561137157600080fd5b600073__Set___________________________________639dc159aa9091836000604051602001526040518363ffffffff167c0100000000000000000000000000000000000000000000000000000000028152600401808381526020018273ffffffffffffffffffffffffffffffffffffffff1673ffffffffffffffffffffffffffffffffffffffff1681526020019250505060206040518083038186803b151561141b57600080fd5b6102c65a03f4151561142c57600080fd5b505050604051805190505050565b6114426121a9565b6000806000336000600102600360008373ffffffffffffffffffffffffffffffffffffffff1673ffffffffffffffffffffffffffffffffffffffff1681526020019081526020016000206000015460001916141515156114a157600080fd5b856000600102600460008381526020019081526020016000206001015460001916141515156114cf57600080fd5b86600360003373ffffffffffffffffffffffffffffffffffffffff1673ffffffffffffffffffffffffffffffffffffffff16815260200190815260200160002060010173__IterableSet_Integer___________________6305eb11509091836000604051602001526040518363ffffffff167c0100000000000000000000000000000000000000000000000000000000028152600401808381526020018281526020019250505060206040518083038186803b151561158e57600080fd5b6102c65a03f4151561159f57600080fd5b5050506040518051905015156115b457600080fd5b60046000898152602001908152602001600020608060405190810160405290816000820154815260200160018201546000191660001916815260200160028201602060405190810160405290816001820180548060200260200160405190810160405280929190818152602001828054801561168557602002820191906000526020600020905b8160009054906101000a900473ffffffffffffffffffffffffffffffffffffffff1673ffffffffffffffffffffffffffffffffffffffff168152602001906001019080831161163b575b505050505081525050815260200160048201602060405190810160405290816001820180548060200260200160405190810160405280929190818152602001828054801561172857602002820191906000526020600020905b8160009054906101000a900473ffffffffffffffffffffffffffffffffffffffff1673ffffffffffffffffffffffffffffffffffffffff16815260200190600101908083116116de575b505050505081525050815250509650866040015160000151519350600095505b83861015611859578660400151600001518681518110151561176657fe5b906020019060200201519450600360008673ffffffffffffffffffffffffffffffffffffffff1673ffffffffffffffffffffffffffffffffffffffff16815260200190815260200160002060010173__IterableSet_Integer___________________63e627f67a90918a6000604051602001526040518363ffffffff167c0100000000000000000000000000000000000000000000000000000000028152600401808381526020018281526020019250505060206040518083038186803b151561183057600080fd5b6102c65a03f4151561184157600080fd5b50505060405180519050508580600101965050611748565b866060015160000151519350600095505b8386101561197b578660600151600001518681518110151561188857fe5b906020019060200201519450600360008673ffffffffffffffffffffffffffffffffffffffff1673ffffffffffffffffffffffffffffffffffffffff16815260200190815260200160002060030173__IterableSet_Integer___________________63e627f67a90918a6000604051602001526040518363ffffffff167c0100000000000000000000000000000000000000000000000000000000028152600401808381526020018281526020019250505060206040518083038186803b151561195257600080fd5b6102c65a03f4151561196357600080fd5b5050506040518051905050858060010196505061186a565b7f87ce32317bebfcf97e3980d9d4f263c3060978653f9f65992e18eae9643077c5886040518082815260200191505060405180910390a16000600102876020019060001916908160001916815250505050505050505050565b600080336000600102600360008373ffffffffffffffffffffffffffffffffffffffff1673ffffffffffffffffffffffffffffffffffffffff168152602001908152602001600020600001546000191614151515611a3157600080fd5b836000600102600360008373ffffffffffffffffffffffffffffffffffffffff1673ffffffffffffffffffffffffffffffffffffffff168152602001908152602001600020600001546000191614151515611a8b57600080fd5b85600060010260046000838152602001908152602001600020600101546000191614151515611ab957600080fd5b86600360003373ffffffffffffffffffffffffffffffffffffffff1673ffffffffffffffffffffffffffffffffffffffff16815260200190815260200160002060010173__IterableSet_Integer___________________6305eb11509091836000604051602001526040518363ffffffff167c0100000000000000000000000000000000000000000000000000000000028152600401808381526020018281526020019250505060206040518083038186803b1515611b7857600080fd5b6102c65a03f41515611b8957600080fd5b505050604051805190501515611b9e57600080fd5b600360008873ffffffffffffffffffffffffffffffffffffffff1673ffffffffffffffffffffffffffffffffffffffff16815260200190815260200160002060010173__IterableSet_Integer___________________6305eb115090918a6000604051602001526040518363ffffffff167c0100000000000000000000000000000000000000000000000000000000028152600401808381526020018281526020019250505060206040518083038186803b1515611c5c57600080fd5b6102c65a03f41515611c6d57600080fd5b505050604051805190501515611c865760009550611eb1565b6004600089815260200190815260200160002094508460020173__IterableSet_Address___________________6331ac78b79091896000604051602001526040518363ffffffff167c0100000000000000000000000000000000000000000000000000000000028152600401808381526020018273ffffffffffffffffffffffffffffffffffffffff1673ffffffffffffffffffffffffffffffffffffffff1681526020019250505060206040518083038186803b1515611d4757600080fd5b6102c65a03f41515611d5857600080fd5b5050506040518051905050600360008873ffffffffffffffffffffffffffffffffffffffff1673ffffffffffffffffffffffffffffffffffffffff16815260200190815260200160002060010173__IterableSet_Integer___________________63e627f67a909187600001546000604051602001526040518363ffffffff167c0100000000000000000000000000000000000000000000000000000000028152600401808381526020018281526020019250505060206040518083038186803b1515611e2557600080fd5b6102c65a03f41515611e3657600080fd5b50505060405180519050507f93137ab9e77b94785b9eb426e1b99b32940a246bc1ba84bf8492af330fa8deb48888604051808381526020018273ffffffffffffffffffffffffffffffffffffffff1673ffffffffffffffffffffffffffffffffffffffff1681526020019250505060405180910390a1600195505b505050505092915050565b6000336000600102600360008373ffffffffffffffffffffffffffffffffffffffff1673ffffffffffffffffffffffffffffffffffffffff168152602001908152602001600020600001546000191614151515611f1857600080fd5b8282600101816000191690555060055482600001819055508160020173__IterableSet_Address___________________63c1dea9309091336000604051602001526040518363ffffffff167c0100000000000000000000000000000000000000000000000000000000028152600401808381526020018273ffffffffffffffffffffffffffffffffffffffff1673ffffffffffffffffffffffffffffffffffffffff1681526020019250505060206040518083038186803b1515611fdc57600080fd5b6102c65a03f41515611fed57600080fd5b5050506040518051905050816004600060055481526020019081526020016000206000820154816000015560018201548160010190600019169055600282018160020160018201816001019080546120469291906121e1565b505050600482018160040160018201816001019080546120679291906121e1565b505050905050600360003373ffffffffffffffffffffffffffffffffffffffff1673ffffffffffffffffffffffffffffffffffffffff16815260200190815260200160002060010173__IterableSet_Integer___________________633b6de70790916005546000604051602001526040518363ffffffff167c0100000000000000000000000000000000000000000000000000000000028152600401808381526020018281526020019250505060206040518083038186803b151561212d57600080fd5b6102c65a03f4151561213e57600080fd5b50505060405180519050507faa046b98d3670c5897823595eab21ba3ca6f42d0d85da3dd9955fecee1c8158a600554846040518083815260200182600019166000191681526020019250505060405180910390a1600560008154809291906001019190505550505050565b60806040519081016040528060008152602001600080191681526020016121ce612233565b81526020016121db612233565b81525090565b8280548282559060005260206000209081019282156122225760005260206000209182015b82811115612221578254825591600101919060010190612206565b5b50905061222f919061224d565b5090565b602060405190810160405280612247612290565b81525090565b61228d91905b8082111561228957600081816101000a81549073ffffffffffffffffffffffffffffffffffffffff021916905550600101612253565b5090565b90565b6020604051908101604052806000815250905600a165627a7a72305820bdf2b291cb09d0706685302d6998422ca7d664489c3c3c9ea31e59725d0757c50029",
  "source": "pragma solidity ^0.4.18;\nimport \"./Set.sol\";\n\ncontract ShareCenter\n{\n    using IterableSet_Integer for IterableSet_Integer.Data;\n    using IterableSet_Address for IterableSet_Address.Data;\n    using Set for Set.Data;\n\n    struct ImageShare {\n        uint id;\n        bytes32 uri;\n        IterableSet_Address.Data authorizedOwn;\n        IterableSet_Address.Data authorizedRead;\n    }\n\n    struct User {\n        bytes32 name;\n        IterableSet_Integer.Data authorizedOwn;\n        IterableSet_Integer.Data authorizedRead;\n    }\n\n    Set.Data authorizedSystems;\n    address owner;\n    mapping(address => User) users;\n    mapping(uint => ImageShare) shares;\n    uint idCounter;\n\n    event ShareCreated(uint _id, bytes32 _uri);\n    event ShareDeleted(uint id);\n    event OwnerAdded(uint _id, address user);\n    event ReaderAdded(uint id, address user);\n    event OwnerRevoked(uint id, address user);\n    event ReaderRevoked(uint id, address user);\n\n    modifier isOwner()\n    {\n        require(msg.sender == owner);\n        _;\n    }\n\n    modifier isUser(address addr)\n    {\n        require(users[addr].name != 0x0);\n        _;\n    }\n\n    modifier isRegisteredSystem()\n    {\n        require(authorizedSystems.contains(msg.sender));\n        _;\n    }\n\n    modifier ownShare(uint id)\n    {\n        require(users[msg.sender].authorizedOwn.contains(id));\n        _;\n    }\n\n    modifier shareExists(uint id)\n    {\n        require(shares[id].uri != 0x0);\n        _;\n    }\n\n    function ShareCenter() public\n    {\n        owner = msg.sender;\n        idCounter = 0;\n    }\n\n    function addSystem(address system) public isOwner\n    {\n        authorizedSystems.add(system);\n    }\n\n    function addUser(address addr, bytes32 name) public isRegisteredSystem returns (bool)\n    {\n        if(users[addr].name != 0x0)\n            return false;\n        users[addr].name = name;\n        return true;\n    }\n\n    function createShare(bytes32 uri) public isUser(msg.sender)\n    {\n        ImageShare storage share;\n        share.uri = uri;\n        share.id = idCounter;\n        share.authorizedOwn.add(msg.sender);\n        shares[idCounter] = share;\n        users[msg.sender].authorizedOwn.add(idCounter);\n        ShareCreated(idCounter, uri);\n        idCounter++;\n    }\n\n    function deleteShare(uint id) public isUser(msg.sender) shareExists(id) ownShare(id)\n    {\n        ImageShare memory share = shares[id];\n        uint i;\n        address addr;\n        uint size = share.authorizedOwn.list.length;\n        for(i = 0; i < size; i++)\n        {\n            addr = share.authorizedOwn.list[i];\n            users[addr].authorizedOwn.remove(id);\n        }\n        size = share.authorizedRead.list.length;\n        for(i = 0; i < size; i++)\n        {\n            addr = share.authorizedRead.list[i];\n            users[addr].authorizedRead.remove(id);\n        }\n        ShareDeleted(id);\n        share.uri = 0x0;\n    }\n\n    function authorizeOwn(uint id, address addr) public isUser(msg.sender) isUser(addr) shareExists(id) ownShare(id) returns (bool)\n    {\n        if(users[addr].authorizedOwn.contains(id))\n            return false;\n        ImageShare storage share = shares[id];\n        share.authorizedOwn.add(addr);\n        users[addr].authorizedOwn.add(share.id);\n        OwnerAdded(id, addr);\n        return true;\n    }\n\n    function authorizeRead(uint id, address addr) public isUser(msg.sender) isUser(addr) shareExists(id) ownShare(id) returns (bool)\n    {\n        if(users[addr].authorizedRead.contains(id))\n            return false;\n        ImageShare storage share = shares[id];\n        share.authorizedRead.add(addr);\n        users[addr].authorizedRead.add(share.id);\n        ReaderAdded(id, addr);\n        return true;\n    }\n\n    function revokeOwn(uint id, address addr) public isUser(msg.sender) isUser(addr) shareExists(id) ownShare(id) returns (bool)\n    {\n        if(!users[addr].authorizedOwn.contains(id))\n            return false;\n        ImageShare storage share = shares[id];\n        share.authorizedOwn.remove(addr);\n        users[addr].authorizedOwn.remove(share.id);\n        OwnerRevoked(id, addr);\n        return true;\n    }\n\n    function revokeRead(uint id, address addr) public isUser(msg.sender) isUser(addr) shareExists(id) ownShare(id) returns (bool)\n    {\n        if(!users[addr].authorizedRead.contains(id))\n            return false;\n        ImageShare storage share = shares[id];\n        share.authorizedRead.remove(addr);\n        users[addr].authorizedRead.remove(share.id);\n        ReaderRevoked(id, addr);\n        return true;\n    }\n\n}\n",
  "sourcePath": "/Users/averma/Documents/Imageshare/BlockchainExperiments/contracts/ShareCenter.sol",
  "compiler": {
    "name": "solc",
    "version": "0.4.18+commit.9cf6e910.Emscripten.clang"
  },
  "schemaVersion": "1.0.1",
  "updatedAt": "2018-01-22T03:13:12.796Z"
}