{
  "contractName": "Voting",
  "abi": [
    {
      "constant": true,
      "inputs": [
        {
          "name": "candidate",
          "type": "bytes32"
        }
      ],
      "name": "totalVotesFor",
      "outputs": [
        {
          "name": "",
          "type": "uint8"
        }
      ],
      "payable": false,
      "stateMutability": "view",
      "type": "function"
    },
    {
      "constant": true,
      "inputs": [
        {
          "name": "",
          "type": "bytes32"
        }
      ],
      "name": "votesReceived",
      "outputs": [
        {
          "name": "",
          "type": "uint8"
        }
      ],
      "payable": false,
      "stateMutability": "view",
      "type": "function"
    },
    {
      "constant": true,
      "inputs": [
        {
          "name": "",
          "type": "uint256"
        }
      ],
      "name": "candidateList",
      "outputs": [
        {
          "name": "",
          "type": "bytes32"
        }
      ],
      "payable": false,
      "stateMutability": "view",
      "type": "function"
    },
    {
      "constant": false,
      "inputs": [
        {
          "name": "candidate",
          "type": "bytes32"
        }
      ],
      "name": "voteForCandidate",
      "outputs": [],
      "payable": false,
      "stateMutability": "nonpayable",
      "type": "function"
    },
    {
      "inputs": [
        {
          "name": "candidateNames",
          "type": "bytes32[]"
        }
      ],
      "payable": false,
      "stateMutability": "nonpayable",
      "type": "constructor"
    },
    {
      "anonymous": false,
      "inputs": [
        {
          "indexed": true,
          "name": "_from",
          "type": "address"
        },
        {
          "indexed": false,
          "name": "_candidate",
          "type": "bytes32"
        }
      ],
      "name": "VoteOccurrence",
      "type": "event"
    },
    {
      "anonymous": false,
      "inputs": [
        {
          "indexed": false,
          "name": "_candidate",
          "type": "bytes32"
        },
        {
          "indexed": false,
          "name": "_totalVotes",
          "type": "uint8"
        }
      ],
      "name": "ElectionWinner",
      "type": "event"
    }
  ],
  "bytecode": "0x6060604052341561000f57600080fd5b604051610524380380610524833981016040528080518201919050508060019080519060200190610041929190610048565b50506100c0565b82805482825590600052602060002090810192821561008a579160200282015b82811115610089578251829060001916905591602001919060010190610068565b5b509050610097919061009b565b5090565b6100bd91905b808211156100b95760008160009055506001016100a1565b5090565b90565b610455806100cf6000396000f300606060405260043610610062576000357c0100000000000000000000000000000000000000000000000000000000900463ffffffff1680632f265cf7146100675780637021939f146100a8578063b13c744b146100e9578063cc9ab26714610128575b600080fd5b341561007257600080fd5b61008c60048080356000191690602001909190505061014f565b604051808260ff1660ff16815260200191505060405180910390f35b34156100b357600080fd5b6100cd600480803560001916906020019091905050610194565b604051808260ff1660ff16815260200191505060405180910390f35b34156100f457600080fd5b61010a60048080359060200190919050506101b4565b60405180826000191660001916815260200191505060405180910390f35b341561013357600080fd5b61014d6004808035600019169060200190919050506101d8565b005b600061015a82610347565b151561016557600080fd5b600080836000191660001916815260200190815260200160002060009054906101000a900460ff169050919050565b60006020528060005260406000206000915054906101000a900460ff1681565b6001818154811015156101c357fe5b90600052602060002090016000915090505481565b6101e181610347565b15156101ec57600080fd5b6101f46103a7565b15156101ff57600080fd5b6001600080836000191660001916815260200190815260200160002060008282829054906101000a900460ff160192506101000a81548160ff021916908360ff1602179055503373ffffffffffffffffffffffffffffffffffffffff167f97766bef3fe6e8976ab0fd4779b78f29008e883042fff1c17d0bee363ccf1a378260405180826000191660001916815260200191505060405180910390a26002600080836000191660001916815260200190815260200160002060009054906101000a900460ff1660ff16101515610344577f3a6c6f6cc3366269a3ba44fb9b18e5dd7ade3977c0d7badfe6588e9e678f24ee81600080846000191660001916815260200190815260200160002060009054906101000a900460ff166040518083600019166000191681526020018260ff1660ff1681526020019250505060405180910390a15b50565b600080600090505b60018054905081101561039c57826000191660018281548110151561037057fe5b90600052602060002090015460001916141561038f57600191506103a1565b808060010191505061034f565b600091505b50919050565b600080600090505b6001805490508110156104205760026000806001848154811015156103d057fe5b9060005260206000209001546000191660001916815260200190815260200160002060009054906101000a900460ff1660ff161015156104135760009150610425565b80806001019150506103af565b600191505b50905600a165627a7a72305820487ae4714bd41b401618596392af9845bafc8fde07a29a0223ed4d56f86eceb10029",
  "source": "pragma solidity ^0.4.18;\r\n// We have to specify what version of compiler this code will compile with\r\n\r\ncontract Voting {\r\n  /* mapping field below is equivalent to an associative array or hash.\r\n  The key of the mapping is candidate name stored as type bytes32 and value is\r\n  an unsigned integer to store the vote count\r\n  */\r\n  \r\n  mapping (bytes32 => uint8) public votesReceived;\r\n  \r\n  /* Solidity doesn't let you pass in an array of strings in the constructor (yet).\r\n  We will use an array of bytes32 instead to store the list of candidates\r\n  */\r\n  \r\n  bytes32[] public candidateList;\r\n\r\n  /* This is the constructor which will be called once when you\r\n  deploy the contract to the blockchain. When we deploy the contract,\r\n  we will pass an array of candidates who will be contesting in the election\r\n  */\r\n  function Voting(bytes32[] candidateNames) public {\r\n    candidateList = candidateNames;\r\n  }\r\n\r\n  // This function returns the total votes a candidate has received so far\r\n  function totalVotesFor(bytes32 candidate) view public returns (uint8) {\r\n    require(validCandidate(candidate));\r\n    return votesReceived[candidate];\r\n  }\r\n\r\n  // This function increments the vote count for the specified candidate. This\r\n  // is equivalent to casting a vote\r\n  function voteForCandidate(bytes32 candidate) public {\r\n    require(validCandidate(candidate));\r\n    require(electionInProgress());\r\n\r\n    votesReceived[candidate] += 1;\r\n    VoteOccurrence(msg.sender, candidate);\r\n\r\n    // if someone gets more than 1 vote they win!\r\n    if(votesReceived[candidate] >= 2) {\r\n      ElectionWinner(candidate, votesReceived[candidate]);\r\n    }\r\n  }\r\n\r\n  event VoteOccurrence(address indexed _from, bytes32 _candidate);\r\n  event ElectionWinner(bytes32 _candidate, uint8 _totalVotes);\r\n\r\n  function validCandidate(bytes32 candidate) view internal returns (bool) {\r\n    for(uint i = 0; i < candidateList.length; i++) {\r\n      if (candidateList[i] == candidate) {\r\n        return true;\r\n      }\r\n    }\r\n    return false;\r\n  }\r\n\r\n  function electionInProgress() view internal returns (bool) {\r\n    for(uint i = 0; i < candidateList.length; i++) {\r\n      if (votesReceived[candidateList[i]] >= 2) {\r\n        return false;\r\n      }\r\n    }\r\n    return true;\r\n  }\r\n}",
  "sourcePath": "/Users/grantcer/Development/ethereum/Voting/contracts/Voting.sol",
  "compiler": {
    "name": "solc",
    "version": "0.4.18+commit.9cf6e910.Emscripten.clang"
  },
  "schemaVersion": "1.0.1",
  "updatedAt": "2017-12-28T23:43:34.424Z"
}